:100000000C9470000C9498000C9498000C94980038
:100010000C9498000C9498000C9498000C94EF08A1
:100020000C9498000C9498000C9498000C94C808B8
:100030000C9498000C9498000C9498000C949800E0
:100040000C942C130C9498000C94490F0C947B0F77
:100050000C9498000C9498000C9498000C949800C0
:100060000C9498000C949800E303AA03E703AE03F2
:10007000B103B403B803BB03BF03C203C503C80382
:10008000CB03CF03D303D703DA03DD03000000085B
:10009000000201000003040700000000000000004F
:1000A000010204081020408001020408102001020F
:1000B00004081020040404040404040402020202DC
:1000C00002020303030303030000000025002800CD
:1000D0002B0000000000240027002A00DB12EA1297
:1000E00011241FBECFEFD8E0DEBFCDBF11E0A0E0EE
:1000F000B1E0ECEAFEE202C005900D92A232B10737
:10010000D9F721E0A2E2B1E001C01D92A83FB207F9
:10011000E1F710E0C0E7D0E004C02197FE010E94A3
:100120004E17CE36D107C9F70E94CC120C94541743
:100130000C9400000C94E313CF93DF93EC01842F15
:100140001E821F821886E4E0F0E0FA87E98791E0DA
:100150009B87488359833B832A8363307105C1F0B1
:100160003CF46130710561F06230710561F013C0DB
:100170006530710541F024F06630710549F00BC01F
:1001800028E030E002C02AE030E03D832C8305C047
:100190002CE030E0FACF1D821C8261E00E946414E2
:1001A00061E08A810E94641461E088810E94A01449
:1001B00061E08A810E94A0140E946C0D8CB58F7D35
:1001C0008CBD8CB5837F8CBD8985DF91CF910C94DC
:1001D0009212FC0166830895FC0160870895FC017A
:1001E0006387862F08956130710519F4FC01178229
:1001F00006C06230710529F421E0FC01278381E00B
:10020000089580E008956730710540F4FC0172871D
:100210006187862F0E94921281E0089580E0089500
:10022000CF93DF93EC018885882311F02A9804C0CE
:1002300060E088810E94A0142F8181E0282730E0AF
:10024000A901542F44275295550F507E9E81292F86
:1002500030E030E4239F302D22271124242B352B2E
:10026000832F0E948B1280E00E948B128885882346
:1002700021F02A9ADF91CF91089561E08881DF9182
:10028000CF910C94A014EF92FF920F931F93CF93F2
:10029000DF931F92CDB7DEB78C017B01FC01848117
:1002A00095818C30910519F4FFE0FF2209C08A3056
:1002B000910519F483E0F82203C0089709F4FF249C
:1002C000F8018085882311F02A9807C060E0F801C2
:1002D000808149830E94A0144981F801278181E02F
:1002E000282730E0B901762F66277295770F707E48
:1002F0009681292F30E0C90190E4899F902D8827AD
:1003000011249B01282B392B80E090E0942F9795A6
:1003100099279795822B932B9061448155812CE0EE
:1003200030E0241B350B02C0EE0CFF1C2A95E2F7CF
:10033000E82AF92A8F2D0E948B128E2D0E948B1293
:10034000F8018085882349F02A9A0F90DF91CF9198
:100350001F910F91FF90EF90089561E0F801808167
:100360000F90DF91CF911F910F91FF90EF900C9420
:10037000A01440E050E00C94430140E050E00C94A5
:10038000430141E050E00C944301CF93DF93FC0123
:100390008281938197FD11C02085222321F05F98EF
:1003A00000005F9A0AC0EF0160E00E94A01461E0C3
:1003B0008A81DF91CF910C94A014DF91CF910895A1
:1003C0000F931F93CF93DF93EC018A0140E050E03D
:1003D0000E94430141E050E0B801CE010E94430178
:1003E0008B85882339F0CE01DF91CF911F910F913A
:1003F0000C94C501DF91CF911F910F910895CF9279
:10040000DF92EF92FF920F931F93CF93DF93E90157
:10041000811106C0188219821A821B821C821DC09B
:100420006A017B010E9476132881211106C021E018
:10043000288369837A838B839C8309811A812B812A
:100440003C81DC01CB01801B910BA20BB30B21E0A3
:100450008C159D05AE05BF0508F420E0822FDF91C5
:10046000CF911F910F91FF90EF90DF90CF90089563
:100470000F931F93FB01BA01A9019801892B29F061
:1004800081E0EF2B19F080E001C081E01F910F9116
:100490000C94FF01CF93DF93EC0180E591E00E9483
:1004A000A11260E088890E94A01480EC0E948B1247
:1004B00061E088890E94A0140E94BB126AE070E08B
:1004C00080E090E0DF91CF910C94A7131F93CF931E
:1004D000DF93EC01162F80E591E00E94A11260E00D
:1004E00088890E94A01483E00E948B12812F0E94B1
:1004F0008B1280E00E948B12182F61E088890E9485
:10050000A0140E94BB12812FDF91CF911F910895FB
:10051000CF92DF92EF92FF920F931F93CF93DF93CF
:1005200000D0CDB7DEB77C01162FC22E80E591E05A
:1005300049835A830E94A11260E0F70180890E94DA
:10054000A01483E00E948B12812F0E948B1249819C
:10055000042F5A81152FD12CDC1459F0F8E0DF1646
:1005600041F080E00E948B12F80181938F01D394B7
:10057000F3CF61E0F70180890E94A0140F900F90E3
:10058000DF91CF911F910F91FF90EF90DF90CF906F
:100590000C94BB12EF92FF921F93CF93DF931F92A5
:1005A000CDB7DEB77C01162F80E591E049830E942C
:1005B000A11260E0F70180890E94A01482E00E94ED
:1005C0008B12812F0E948B124981842F0E948B12E3
:1005D00061E0F70180890E94A0140F90DF91CF9114
:1005E0001F91FF90EF900C94BB12CF92DF92EF928D
:1005F000FF920F931F93CF93DF9300D0CDB7DEB759
:100600008C01E62EF22E80E591E049835A830E9408
:10061000A11260E0F80180890E94A01482E00E948B
:100620008B128E2D0E948B124981E42EC42E5A818A
:10063000D52E8C2D8E198F1530F4F60181916F0116
:100640000E948B12F6CF61E0F80180890E94A0140D
:100650000F900F90DF91CF911F910F91FF90EF902E
:10066000DF90CF900C94BB12EF92FF921F93CF9329
:10067000DF9300D0CDB7DEB77C01162F80E591E087
:100680002A8349830E94A11260E0F70180890E94B9
:10069000A01485E00E948B12812F0E948B12498149
:1006A000842F0E948B122A81822F0E948B1261E07C
:1006B000F70180890E94A0140F900F90DF91CF91D5
:1006C0001F91FF90EF900C94BB121F93CF93DF9379
:1006D000EC0180E591E00E94A11260E088890E940F
:1006E000A01480EA0E948B1280E00E948B12182FC7
:1006F00061E088890E94A0140E94BB12812FDF91C3
:10070000CF911F9108950F931F93CF938C01C62F04
:10071000262F40EE6FE00E9434036FE0C8010E9474
:100720006602982F907E81E09C1301C080E0CF91FB
:100730001F910F9108950F931F93CF93DF93462F2F
:1007400050E0FA013197E231F105D8F5EC5CFF4F4A
:100750000C944E17C7E8DFEF4FE13CC0C7E0DAEB7F
:1007600038C0C5E8D1EF35C0C7E0DEEB49E032C0A4
:10077000C7E8DFEF02C0C7E8DAEF47E02BC0C7E801
:10078000DFEF0BC0C7E0DEEB08C0C7E0DDEA05C065
:10079000C7E8DAEF02C0C6E8D0EF43E01BC0C7E805
:1007A000DAEF41E017C0C5E8D1EF41E413C0C6E875
:1007B000D0EF05C0C4E0D0EA02C0C2E8D0ED40E00E
:1007C00009C081E016C0C7E8DFEF4FE303C0C7E808
:1007D000DFEF4FE08C016AE20E94CA024D2F69E20E
:1007E000C8010E94CA024C2F68E2C8010E94CA02D6
:1007F00080E0DF91CF911F910F9108950F931F9388
:10080000CF938C01C0E340E06C2FC8010E94CA0264
:1008100060E16C0F40E0C8010E94CA0260E26C0F08
:1008200040E0C8010E94CA02CF5FCE3361F740E0CA
:1008300060E6C8010E94CA0240E060E7C801CF91AB
:100840001F910F910C94CA020F931F93CF93DF93C4
:10085000EC01062F0E944A0260E8CE010E94830349
:10086000182F6AE070E080E090E011110CC00E9447
:10087000A713602FCE010E949B03882339F06AE002
:1008800070E080E090E00E94A71328C06AE070E06A
:1008900080E090E00E94A713CE010E94FE0343E097
:1008A0006BE2CE010E94CA0224E044E660E6CE017B
:1008B0000E94340320E040E660E7CE010E9434034A
:1008C00060E0CE010E948303C82F8823C1F26AE052
:1008D00070E080E090E00E94A7131C2F812FDF9131
:1008E000CF911F910F9108950F931F93CF93DF9393
:1008F00000D000D0CDB7DEB74130B1F40C831B83FC
:10090000890122273327502F5C71402F437078E0F4
:10091000579F400D112448604A8355E0169507956E
:100920005A95E1F709830DC0A80123E05695479534
:100930002A95E1F749830295000F007E0A831C8205
:100940001B8224E0AE014F5F5F4F0E94F5020F90C3
:100950000F900F900F90DF91CF911F910F910895FD
:10096000EF92FF920F931F93CF93DF9300D000D0AD
:10097000CDB7DEB77A018901FA011082F901108240
:1009800011821282138224E0AE014F5F5F4F0E94FA
:1009900088022A813981822F90E065E095958795BC
:1009A0006A95E1F7F8E03F9F800D911D1124092E13
:1009B000000CAA0BBB0BF80180839183A283B38345
:1009C00023FF25C032E0880F991FAA1FBB1F3A954D
:1009D000D1F72370820F911DA11DB11DBA2FA92F30
:1009E000982F88272B81820F911DA11DB11DBA2F31
:1009F000A92F982F88272C81820F911DA11DB11D31
:100A000080839183A283B38381E0F70180830F9079
:100A10000F900F900F90DF91CF911F910F91FF904A
:100A2000EF900895FF920F931F93CF93DF93EC0104
:100A3000F62E8A01AC014A5F5F4F65E06F0D2D8194
:100A40000E94F5020130110519F48D8180648D83B7
:100A500064E06F0D4D81CE010E94CA0209811A81A6
:100A60002B813C8148816F2DCE010E947404DF915F
:100A7000CF911F910F91FF9008950F931F93CF93E4
:100A8000DF93EC01162F9C012F5F3F4FAC010E94BA
:100A9000B0046FEF610FCE010E946602082F64E080
:100AA000610FCE010E94660203FB002700F90E874A
:100AB000282F2F702D83AE014A5F5F4F65E0610FD5
:100AC000CE01DF91CF911F910F910C94880261505C
:100AD00028E048E00C943403AF92BF92CF92DF92AB
:100AE000EF92FF920F931F93CF93DF9300D01F924B
:100AF000CDB7DEB75C016B0180E3898380E48A8334
:100B000080E58B83FB0110828E010F5F1F4F83E016
:100B1000E82EE00EF801F1908F016F2DC5010E94C3
:100B20006602982F987083FD04C0F394F601F0825A
:100B300003C0E012EFCF92E0892F0F900F900F903B
:100B4000DF91CF911F910F91FF90EF90DF90CF90A9
:100B5000BF90AF900895FC01608B08951F93CF93D1
:100B6000DF93EC01162F61E088890E94641461E034
:100B700088890E94A0140E946C0D612FCE010E94F2
:100B8000240491E0811101C090E0892FDF91CF9181
:100B90001F9108958F929F92AF92BF92DF92EF9232
:100BA000FF920F931F93CF93DF931F92CDB7DEB7C2
:100BB0007C01D62E480159016AE070E080E090E0A7
:100BC00049830E94A71360E8C7010E948303182F7E
:100BD0004981882329F06AE070E080E090E01AC043
:100BE000D11004C09501840160E206C081E0D812F2
:100BF00006C09501840164E2C7010E94740460E0AC
:100C0000C7010E948303182F6AE070E080E090E043
:100C1000112321F00E94A713812F03C00E94A71364
:100C200080E00F90DF91CF911F910F91FF90EF9097
:100C3000DF90BF90AF909F908F9008958F929F927A
:100C4000AF92BF92EF92FF920F931F93CF93DF93D8
:100C500000D0CDB7DEB77C01562F480159016AE0BC
:100C600070E080E090E04A8359830E94A71360E817
:100C7000C7010E948303182F4A815981882329F0D4
:100C80006AE070E080E090E031C05230B1F040F4B2
:100C9000552379F05130F9F49501840164E018C0CE
:100CA000543099F070F05530B1F49501840168E149
:100CB0000FC09501840160E00BC09501840168E0DC
:100CC00007C09501840160E103C09501840164E1DE
:100CD000C7010E94740460E0C7010E948303182FBB
:100CE0006AE070E080E090E0112321F00E94A713F9
:100CF000812F03C00E94A71380E00F900F90DF9117
:100D0000CF911F910F91FF90EF90BF90AF909F9068
:100D10008F900895CF92DF920F931F93FC01208351
:100D20004183528363837483093008F008E00583AC
:100D30003696D60110E0CD018C199D0980179107D8
:100D40001CF48D918193F7CF80E01F910F91DF907C
:100D5000CF900895EF92FF920F931F93FC01208391
:100D60004183528363837483093008F008E005836C
:100D70003696D70110E0CD018E199F098017910793
:100D80001CF48D918193F7CF80E01F910F91FF901C
:100D9000EF900895FC011182128213821482158251
:100DA00010821686178680E00895CF92DF92EF9228
:100DB000FF920F931F93CF93DF931F92CDB7DEB7B0
:100DC0007C016B0100E010E0BE016F5F7F4FC70147
:100DD0000E946C050F5F1F4F823021F40233110512
:100DE00099F720C002331105E9F0A6016981C70116
:100DF0000E9412056981C7010E94670500E010E0AA
:100E00000F5F1F4F69816150C7010E94660283FF17
:100E100004C002331105A1F707C00233110521F008
:100E200080E003C086E001C087E00F90DF91CF91A2
:100E30001F910F91FF90EF90DF90CF900895AF92A8
:100E4000BF92CF92DF92EF920F93CF935C01C02FAE
:100E50000E2DEC2E0E948A066C2F70E0C501CF91FA
:100E60000F91EF90DF90CF90BF90AF900C94D5068C
:100E7000EF92FF920F93CF93DF93EC010E94AA06AB
:100E800060E070E0CE01DF91CF910F91FF90EF9085
:100E90000C94D506CF93DF93EC010E94650380FF8D
:100EA00007C061E6CE010E943D0520E041E008C098
:100EB00081FF0CC061E7CE010E943D0520E042E0C9
:100EC0006CE2CE010E94340380E001C084E0DF9137
:100ED000CF910895EF92FF920F931F93CF93DF93DB
:100EE000EC018B017A010E944A07811111C09D819A
:100EF000F8019083DE011696F7012D8130E0BF01E5
:100F00006E197F09621773072CF49D919193F5CFA9
:100F1000F8011082DF91CF911F910F91FF90EF9018
:100F20000895CF92DF92EF92FF920F931F93CF938A
:100F3000DF9300D0CDB7DEB76C017B018A01298336
:100F40003A830E944A0729813A81811123C0F60120
:100F50009581F8019083F60141815281638174810A
:100F6000F7014083518362837383D6011696B901DA
:100F700020E030E0F601458150E02417350764F4A5
:100F80002830310549F09D91FB019193BF012F5FFE
:100F90003F4FF0CFF80110820F900F90DF91CF916B
:100FA0001F910F91FF90EF90DF90CF9008950E94D6
:100FB0006503837011F484E0089583E008956DE281
:100FC0000E946602887F09F085E00895FC01618136
:100FD0007281838194810895FC0186850895FC01C6
:100FE00080810895CF93DF93EC0160E1CE010E94F0
:100FF000AE05882339F062E370E080E090E00E9463
:10100000A713F3CFDF91CF910895CF93DF936115AD
:101010007105F1F0EB0121E1FB0111922A95E9F74D
:10102000F8949B01275F3F4FAB014C5F5F4F0E94DD
:101030009107811109C00E9476136D837E838F838F
:10104000988780E090E002C081E090E0789402C050
:1010500082E090E0DF91CF9108952F923F924F92DE
:101060005F926F927F928F929F92AF92BF92CF9238
:10107000DF92EF92FF921F93CF93DF93CDB7DEB74E
:1010800028970FB6F894DEBF0FBECDBF1C01122FFC
:101090006B01770FEE08FF08412C512C3201812C97
:1010A000912C54014C145D046E047F049CF4842F35
:1010B00048870E941E14092E000CAA0BBB0B880E39
:1010C000991EAA1EBB1E8FEF481A580A680A780A92
:1010D0004885E8CFC501B401A70196010E942F17EA
:1010E00062E0220F331F441F551F6A95D1F7412C30
:1010F000512C3201812C912C54014C145D046E044E
:101100007F04CCF4812F2D833E8348875F830E9428
:101110001E14092E000CAA0BBB0B880E991EAA1ECA
:10112000BB1E9FEF491A590A690A790A5F814885EF
:101130003E812D81E2CFB901C1010E94BD01C501EF
:10114000B401A70196010E942F17CA01B90122E03C
:10115000660F771F881F991F2A95D1F7C10128961E
:101160000FB6F894DEBF0FBECDBFDF91CF911F91B8
:10117000FF90EF90DF90CF90BF90AF909F908F90B7
:101180007F906F905F904F903F902F900C94C10193
:101190001F920F920FB60F9211242F933F934F93EC
:1011A0005F936F937F938F939F93AF93BF93EF93CF
:1011B000FF93E0912401F09125010995FF91EF91B2
:1011C000BF91AF919F918F917F916F915F914F915F
:1011D0003F912F910F900FBE0F901F9018951F9267
:1011E0000F920FB60F9211242F933F934F935F935B
:1011F0006F937F938F939F93AF93BF93EF93FF93DF
:10120000E0912201F09123010995FF91EF91BF91A7
:10121000AF919F918F917F916F915F914F913F918E
:101220002F910F900FBE0F901F901895CF92DF92C5
:10123000EF92FF92CF93DF936B017C01EA01F89468
:10124000109280001092810010928500109284000C
:1012500020E030E040E857E40E949B169B01AC017F
:1012600060E074E284E79BE40E9443150E94B51598
:10127000613021E072078105910550F08091810075
:1012800085608093810060E074E080E090E036C08B
:10129000613471058105910550F080918100846071
:1012A0008093810060E071E080E090E027C06930C9
:1012B00071058105910550F08091810083608093D4
:1012C000810060E470E080E090E018C06230710559
:1012D0008105910550F080918100826080938100AA
:1012E00068E070E080E090E009C08091810081605A
:1012F0008093810061E070E080E090E00E94E4155E
:101300009B01AC01C701B6010E949B169B01AC0179
:1013100060E074E284E79BE40E94431520E030E043
:1013200040E85FE30E94D1140E94B5156115710574
:1013300021E08207910550F4611571058105910541
:1013400049F461E070E080E090E004C06FEF7FEF6F
:1013500080E090E070938900609388008091810024
:1013600088608093810080916F00826080936F001D
:10137000D0932501C09324017894DF91CF91FF9001
:10138000EF90DF90CF900895CF92DF92EF92FF928F
:10139000CF93DF936B017C01EA01F8941092B000C7
:1013A0001092B1001092B20020E030E040E853E427
:1013B0000E949B169B01AC0160E074E284E79BE411
:1013C0000E9443150E94B515613021E07207810526
:1013D000910550F08091B10087608093B10060E08A
:1013E00074E080E090E054C061387105810591059A
:1013F00050F08091B10086608093B10060E071E0B0
:1014000080E090E045C0613471058105910550F0A0
:101410008091B10085608093B10060E870E080E069
:1014200090E036C0613271058105910550F08091E0
:10143000B10084608093B10060E470E080E090E0EF
:1014400027C0693071058105910550F08091B10088
:1014500083608093B10060E270E080E090E018C0AB
:10146000623071058105910550F08091B100826074
:101470008093B10068E070E080E090E009C0809166
:10148000B10081608093B10061E070E080E090E0A5
:101490000E94E4159B01AC01C701B6010E949B1696
:1014A0009B01AC0160E074E284E79BE40E94431579
:1014B00020E030E040E85FE30E94D1140E94B515BF
:1014C0006F3F71058105910509F050F461157105B3
:1014D0008105910549F461E070E080E090E004C08E
:1014E0006FEF70E080E090E06093B3008091B10016
:1014F00082608093B1008091700082608093700060
:10150000D0932301C09322017894DF91CF91FF9073
:10151000EF90DF90CF900895E6E2F1E01082118223
:101520001282089561E089E00E94641460E08EE018
:101530000E94641460E08FE00E94641460E080E127
:101540000E94641460E081E10E94641461E086E01E
:101550000E946414F89461E089E00E94A01460E0A5
:1015600086E00E94A014789408950F931F9389E257
:1015700091E00E94F20700EF17E020E030E040E049
:1015800060E089E291E00E94CA0500E810E020E0F6
:1015900030E040E060E089E291E00E941E0600EA4F
:1015A00010E020E030E040E061E089E291E00E945C
:1015B0001E060FEF17E020E030E040E061E089E236
:1015C00091E00E94CA0501E810E020E030E041E02F
:1015D00062E089E291E00E941E061F910F9108953A
:1015E00048EF5AE060E070E088E492E40C94160959
:1015F000EF92FF920F93CF93DF93CDB7DEB728978B
:101600000FB6F894DEBF0FBECDBF85E089838CECAA
:101610008A83E6E2F1E080818B8381818C83828101
:101620008D83F894CE0101967C0108E020E043E828
:1016300050E060E070E089E291E00E943807789421
:1016400028960FB6F894DEBF0FBECDBFDF91CF91C5
:101650000F91FF90EF900895EF92FF920F93CF9329
:10166000DF93CDB7DEB728970FB6F894DEBF0FBE75
:10167000CDBF85E089838CEC8A8381E090E0A0E097
:10168000B0E08B839C83AD83BE83809128018F83E0
:10169000F894CE0101967C0108E020E04FEA50E08A
:1016A00060E070E089E291E00E9438077894289623
:1016B0000FB6F894DEBF0FBECDBFDF91CF910F9173
:1016C000FF90EF9008954F925F926F927F92AF924A
:1016D000BF92CF92DF92EF92FF920F931F93CF931F
:1016E000DF93CDB7DEB761970FB6F894DEBF0FBEBC
:1016F000CDBFBE016F5F7F4F89E291E00E94050878
:10170000892B09F0D1C08A85853009F0CDC08B8541
:101710008C3C09F0C9C089819A81AB81BC81803839
:101720009105A105B10519F40E94990CBDC081383D
:101730009105A105B10519F40E94B30CB5C082381A
:101740009105A105B10509F0A9C023E333E34BE4FA
:1017500051E46C857D858E859F850E949B165B017B
:101760008C012DEC3CEC4CE451EC0E943E1587FDC5
:1017700011C023E333E34BE451E4B501C8010E94F7
:10178000961618166CF443E3A42E53E3B52E0BE41F
:1017900011E406C06DECA62E7CECB72E0CE411EC27
:1017A00021E73DE34AE05EE3B501C8010E949B16D4
:1017B00023EC35EF48E150E40E94D2142B013C01A8
:1017C0002DEC3CEC4CE45FE30E943E1587FD12C01B
:1017D00023E333E343E850E4C301B2010E949616C9
:1017E000181684F423E3422E542C23E8622E20E4BE
:1017F000722E08C03DEC432E3CEC532E3CE4632E8D
:101800003FE3732E21EE3AE744E15EEBB501C801F8
:101810000E949B1628E431EE4AE150E40E94D21463
:101820006B017C0126E636E646E65FE30E943E1544
:1018300087FD12C026E636E646E850E4C701B60149
:101840000E949616181674F486E6C82EDC2C86E8DC
:10185000E82E80E4F82E06C096E6C92EDC2CEC2C8F
:101860009FE3F92E2DEC3CEC4CE454E4C301B201AF
:101870000E949B160E94B5152B013C012DEC3CECFF
:101880004CE454E4C701B6010E949B160E94B515B2
:10189000DC01CB01B2010E94690C06C08F3A9105B0
:1018A000A105B10509F448CF61960FB6F894DEBFE3
:1018B0000FBECDBFDF91CF911F910F91FF90EF90A1
:1018C000DF90CF90BF90AF907F906F905F904F90E0
:1018D0000895CF93DF93EB0120912601222331F16C
:1018E000823E22E0920740F0BC0161378DE078072C
:1018F00028F060E77DE002C062EE72E0C03922E0CD
:10190000D20738F0CF318DE0D80728F0CEE1DDE006
:1019100002C0C0E9D2E0F8948AE391E00E94BD01E0
:10192000BE018AE391E00E94C1017894DF91CF91DA
:10193000089580912601811115C0809127018111A0
:1019400011C02FE04EE064E170E08AE391E00E9474
:101950002D08F89461E086E00E94A014789481E05C
:10196000809326010895809126018823A1F02FE01D
:101970004EE064E170E08AE391E00E942D08F89463
:1019800060E086E00E94A0147894109226011092E4
:101990004C0110924B0108958F929F92AF92BF928B
:1019A000EF92FF920F931F93CF93DF9380912601C5
:1019B000811105C080912801882309F482C0F89420
:1019C0008EE00E941E14EC01CC0FDD1FCC0FDD1F3A
:1019D0008FE00E941E147C01EE0CFF1CEE0CFF1C1D
:1019E0007894BE016E197F0977FF03C071956195E8
:1019F000710980914B0190914C01892B21F47093D6
:101A00004C0160934B0180E090E00E94E4152AE0D5
:101A100037ED43E25CE30E949B164B015C01809131
:101A20004B0190914C01BC0180E090E00E94E415D4
:101A300024EA30E74DE75FE30E949B169B01AC016F
:101A4000C501B4010E94D2140E94B51570934C01D7
:101A500060934B0106E411E024E630E040E050E002
:101A6000B701CE010E943802882399F00E94B30C7E
:101A700080912801816080932801DF91CF911F918F
:101A80000F91FF90EF90BF90AF909F908F900C942C
:101A90002C0B80914B0190914C01813D974068F057
:101AA0000E94B30C809128018260809328010E94DB
:101AB0002C0B81E08093270104C010922801109222
:101AC0002701DF91CF911F910F91FF90EF90BF9071
:101AD000AF909F908F900895CF93CFB7F894809157
:101AE0005001811127C0EEEBF0E08491EAEAF0E0CA
:101AF0009491E82FF0E0EE0FFF1FEE52FF4FA591FB
:101B0000B491EC91E92321F461E08AE00E94A014F1
:101B100061E08AE00E9464148CB580618CBD8CB554
:101B200080648CBD61E08DE00E94641461E08BE014
:101B30000E946414809150018F5F80935001CFBF49
:101B4000CF9108959FB7F89480915001882319F0A0
:101B500081508093500180915001811105C08CB556
:101B60008F7B8CBD10924F019FBF08959FB7F89453
:101B7000882349F0813011F482E006C082E080932E
:101B80004F0180E001C081E020914E01822B8093C3
:101B90004E0180914F01811103C081E080934F017C
:101BA0009FBF089590914F019230B1F02FB7F894F4
:101BB000882321F0813021F482E003C081E001C05C
:101BC00080E0809590914E01892380934E01811190
:101BD00002C010924F012FBF0895FC01918D228DFC
:101BE000892F90E0805C9F4F821B91098F7399270A
:101BF0000895FC01918D828D981731F0828DE80F48
:101C0000F11D858D90E008958FEF9FEF0895FC0101
:101C1000918D828D981761F0828DDF01A80FB11D23
:101C20005D968C91928D9F5F9F73928F90E0089547
:101C30008FEF9FEF0895FC01538D448D252F30E0E9
:101C4000842F90E0821B930B541710F0CF960895C9
:101C50000197089581EA9FE0892B49F080E090E0A8
:101C6000892B29F00E94A10F81110C940000089586
:101C7000FC01848DDF01A80FB11DA35ABF4F2C9129
:101C8000848D90E001968F739927848FA689B789F8
:101C90002C93A089B1898C9180648C93938D848DD1
:101CA000981306C00288F389E02D80818F7D8083A0
:101CB0000895CF93DF93EC01888D8823C9F0EA89DA
:101CC000FB89808185FD05C0A889B9898C9186FD35
:101CD0000FC00FB607FCF5CF808185FFF2CFA88932
:101CE000B9898C9185FFEDCFCE010E94380EE7CFE8
:101CF000DF91CF910895EF92FF920F931F93CF93AF
:101D0000DF93EC0181E0888F9B8D8C8D981305C04B
:101D1000E889F989808185FD24C0F62E0B8D10E0BD
:101D20000F5F1F4F0F731127E02E8C8DE8120CC030
:101D30000FB607FCFACFE889F989808185FFF5CFD6
:101D4000CE010E94380EF1CF8B8DFE01E80FF11D00
:101D5000E35AFF4FF0820B8FEA89FB898081806212
:101D600007C0EE89FF896083E889F98980818064F2
:101D7000808381E090E0DF91CF911F910F91FF90E0
:101D8000EF900895CF92DF92EF92FF921F93CF933F
:101D9000DF93EC016A017B01122FE889F98982E067
:101DA00080834115514E61057105B1F060E079E025
:101DB0008DE390E0A70196010E940D17DA01C90199
:101DC0000197A109B109B695A79597958795AC019B
:101DD000411580E15807A8F0E889F989108260E888
:101DE00074E88EE190E0A70196010E940D17BA01F8
:101DF000A901415051096109710976956795579577
:101E00004795EC85FD855083EE85FF854083188ED0
:101E1000EC89FD891083EA89FB8980818061808358
:101E2000EA89FB89808188608083EA89FB898081D7
:101E300080688083EA89FB8980818F7D8083DF9140
:101E4000CF911F91FF90EF90DF90CF900895CF93A7
:101E5000DF93EC01E881F9810680F781E02D099597
:101E6000EA89FB8980818F7E8083EA89FB89808172
:101E7000877F8083EA89FB8980818F778083EA89E5
:101E8000FB8980818F7D80838A8D898FDF91CF91BF
:101E900008951F920F920FB60F9211242F938F93D4
:101EA0009F93EF93FF93E0916201F0916301808132
:101EB000E0916801F091690182FD12C090818091EA
:101EC0006B018F5F8F7320916C01821751F0E0914D
:101ED0006B01F0E0EE5AFE4F958F80936B0101C0CD
:101EE0008081FF91EF919F918F912F910F900FBE65
:101EF0000F901F9018951F920F920FB60F921124FA
:101F00002F933F934F935F936F937F938F939F9301
:101F1000AF93BF93EF93FF9382E591E00E94380E59
:101F2000FF91EF91BF91AF919F918F917F916F91B1
:101F30005F914F913F912F910F900FBE0F901F9087
:101F4000189582E591E00E94ED0D21E0892B09F4BE
:101F500020E0822F0895CF92DF92EF92FF920F93AD
:101F60001F93CF93DF936C017A018B01C0E0D0E027
:101F7000CE15DF0589F0D8016D918D01D601ED9167
:101F8000FC910190F081E02DC6010995892B11F497
:101F90007E0102C02196ECCFC701DF91CF911F9146
:101FA0000F91FF90EF90DF90CF900895EF92FF9206
:101FB0000F931F93CF93DF938C017B01C0E0D0E0A0
:101FC000F701EC0FFD1F6491662361F0D801ED91DC
:101FD000FC910190F081E02DC8010995892B11F049
:101FE0002196EECFCE01DF91CF911F910F91FF90FF
:101FF000EF900895DC01ED91FC91DB0114964D9179
:102000005C9115976D917C910280F381E02D09948C
:102010000C941713DC01ED91FC910190F081E02DFF
:102020000994DB01ED91FC9111970190F081E02D75
:10203000BC01CD01099463E171E00C9417130F9377
:102040001F93CF93DF93EC010E94D60F8C01CE013A
:102050000E941B10800F911FDF91CF911F910F9154
:1020600008950F931F93CF93DF93EC010E94FA0F13
:102070008C01CE010E941B10800F911FDF91CF9128
:102080001F910F9108950F931F93CF93DF93EC014E
:102090000E9417138C01CE010E941B10800F911F0C
:1020A000DF91CF911F910F9108950F931F93CF93BD
:1020B000DF93EC010E940A108C01CE010E941B10DC
:1020C000800F911FDF91CF911F910F9108950F9372
:1020D0001F93CF93DF93EC010E9411108C01CE016E
:1020E0000E941B10800F911FDF91CF911F910F91C4
:1020F00008954F925F926F927F92EF92FF920F93AB
:102100001F93CF93DF93CDB7DEB7A1970FB6F894A7
:10211000DEBF0FBECDBF7C01FA01CB0119A2223078
:1021200008F42AE08E010F5D1F4F422E512C612CC6
:10213000712CBF01A30192010E940D17F901CA0180
:10214000015011096A3014F4605D01C0695CD80166
:102150006C93232B242B252B61F7B801C7010E9418
:102160001713A1960FB6F894DEBF0FBECDBFDF9157
:10217000CF911F910F91FF90EF907F906F905F90A4
:102180004F900895CF92DF92EF92FF920F931F939B
:10219000CF93DF93EC016A017B012115310579F4BE
:1021A000E881F9810190F081E02D642FDF91CF91DA
:1021B0001F910F91FF90EF90DF90CF9009942A30FC
:1021C0003105E9F477FF1AC06DE20E940A108C0114
:1021D00044275527BA014C195D096E097F092AE089
:1021E000CE010E947910800F911FDF91CF911F9136
:1021F0000F91FF90EF90DF90CF9008952AE0B70104
:10220000A601CE01DF91CF911F910F91FF90EF902A
:10221000DF90CF900C9479109A01AB01770F660B89
:10222000770B0C94C2100F931F93CF93DF93EC01A5
:102230009A01AB01770F660B770B0E94C2108C01DD
:10224000CE010E941B10800F911FDF91CF911F9133
:102250000F9108950F931F93CF93DF93EC010E948A
:10226000C2108C01CE010E941B10800F911FDF91C4
:10227000CF911F910F9108952115310541F4DC0193
:10228000ED91FC910190F081E02D642F09940C9464
:1022900079109A01462F50E060E070E00C943C11F8
:1022A0000F931F93CF93DF93EC019A01462F50E0D9
:1022B00060E070E00E943C118C01CE010E941B1076
:1022C000800F911FDF91CF911F910F9108959A0177
:1022D000AB0160E070E00C943C110F931F93CF931F
:1022E000DF93EC019A01AB0160E070E00E943C11C9
:1022F0008C01CE010E941B10800F911FDF91CF91A6
:102300001F910F9108950F931F93CF93DF93EC01CB
:102310000E943C118C01CE010E941B10800F911F66
:10232000DF91CF911F910F9108954F925F926F921D
:102330007F928F929F92AF92BF92CF92DF92EF9255
:10234000FF92CF93DF93EC016A017B01B22E9A01D9
:10235000AB01C701B6010E940817882319F066E196
:1023600071E027C026013701E89477F82FEF3FEF9F
:102370004FE75FE7C301B2010E94081781110DC04A
:102380002FEF3FEF4FE75FE7C301B2010E943E1519
:1023900018161CF46AE171E00CC02FEF3FEF4FE715
:1023A0005FE4C701B6010E94961618169CF46EE110
:1023B00071E0CE01DF91CF91FF90EF90DF90CF9051
:1023C000BF90AF909F908F907F906F905F904F9055
:1023D0000C9417132FEF3FEF4FE75FECC701B601E7
:1023E0000E943E1587FDE3CF20E030E0A901C70140
:1023F000B6010E943E1587FF0AC06DE2CE010E9421
:102400000A104C01F7FAF094F7F8F09402C0812C0E
:10241000912CA12C60E070E080E09FE3AB1441F0D0
:1024200020E030E040E251E40E944315A394F6CF4F
:102430009B01AC01C701B6010E94D2142B013C01E3
:102440000E94B5156B017C010E94E4159B01AC0153
:10245000C301B2010E94D1142B013C012AE0B70153
:10246000A601CE010E9479107C01E80CF91CBB206A
:1024700031F06EE2CE010E940A10E80EF91EDB2C4C
:10248000DD2029F120E030E040E251E4C301B20157
:102490000E949B162B013C010E94B5154B01A12CFB
:1024A000B12C2AE0B501A401CE010E947910E80EFA
:1024B000F91EC501B4010E94E4159B01AC01C301E2
:1024C000B2010E94D1142B013C01DA94D9CFC7018B
:1024D000DF91CF91FF90EF90DF90CF90BF90AF90C2
:1024E0009F908F907F906F905F904F9008950C9485
:1024F00095110F931F93CF93DF93EC010E949511D9
:102500008C01CE010E941B10800F911FDF91CF9193
:102510001F910F9108958EBD00000DB407FEFDCFF1
:102520008EB508959CB5282F23709C7F922B9CBD5F
:102530002DB582FB992790F9822F8E7F892B8DBD37
:10254000089520914F01222399F04FB7F8942091DC
:102550004F01213059F42DB320934D013DB320910B
:102560004E01209523232DBB4FBF02C040934D0148
:102570008CBD9DBD089580914F01882361F09FB768
:10258000F89420914F0180914D01213019F48DBBB9
:102590009FBF08958FBF08950E949A000E948C0AE1
:1025A0000E94920A0E94B50A0E94F00A0E94630BE0
:1025B0000E94CC0CFBCF2FEF3FEF49E050E066E0EC
:1025C00070E08AE391E00E949C006AE089E291E079
:1025D0000C94AB05E2E5F1E01382128288EE93E001
:1025E000A0E0B0E084839583A683B78385E091E083
:1025F0009183808385EC90E09587848784EC90E0DC
:102600009787868780EC90E0918B808B81EC90E0BF
:10261000938B828B82EC90E0958B848B86EC90E0A0
:10262000978B868B118E128E138E148E08956115E2
:10263000710579F0FB0101900020E9F73197AF01B6
:10264000461B570BDC01ED91FC910280F381E02DDC
:10265000099480E090E008951F920F920FB60F92B8
:1026600011242F933F938F939F93AF93BF938091A8
:10267000F0019091F101A091F201B091F30130913C
:10268000EF0123E0230F2D3720F40196A11DB11D8A
:1026900005C026E8230F0296A11DB11D2093EF016E
:1026A0008093F0019093F101A093F201B093F301B4
:1026B0008091F4019091F501A091F601B091F7019C
:1026C0000196A11DB11D8093F4019093F501A09393
:1026D000F601B093F701BF91AF919F918F913F9118
:1026E0002F910F900FBE0F901F9018952FB7F89451
:1026F0006091F0017091F1018091F2019091F301EC
:102700002FBF08953FB7F8948091F4019091F5019F
:10271000A091F601B091F70126B5A89B05C02F3F07
:1027200019F00196A11DB11D3FBFBA2FA92F982FF7
:102730008827820F911DA11DB11DBC01CD0142E072
:10274000660F771F881F991F4A95D1F708958F92BA
:102750009F92AF92BF92CF92DF92EF92FF926B0166
:102760007C010E9482134B015C01C114D104E1047D
:10277000F10401F10E94D0140E948213DC01CB010C
:1027800088199909AA09BB09883E9340A105B1059A
:1027900060F321E0C21AD108E108F10888EE880E42
:1027A00083E0981EA11CB11CC114D104E104F10402
:1027B00019F7DBCFFF90EF90DF90CF90BF90AF90F5
:1027C0009F908F900895789484B5826084BD84B57D
:1027D000816084BD85B5826085BD85B5816085BD1C
:1027E000EEE6F0E0808181608083E1E8F0E0108235
:1027F000808182608083808181608083E0E8F0E076
:10280000808181608083E1EBF0E08081846080835F
:10281000E0EBF0E0808181608083EAE7F0E0808196
:1028200084608083808182608083808181608083F6
:102830008081806880831092C10008958E3008F0F6
:102840008E5087702091000190E4299F90011124FF
:10285000822B80937C0080917A00806480937A0040
:1028600080917A0086FDFCCF8091780020917900DC
:1028700090E0922B0895833081F028F4813099F014
:102880008230A1F008958730A9F08830B9F0843003
:10289000D1F4809180008F7D03C0809180008F777C
:1028A00080938000089584B58F7702C084B58F7DB2
:1028B00084BD08958091B0008F7703C08091B000EF
:1028C0008F7D8093B0000895CF93DF9390E0FC015B
:1028D000E056FF4F2491FC01EC54FF4F8491882374
:1028E00061F190E0880F991FFC01EE52FF4FC591F6
:1028F000D491FC01E853FF4FA591B491611109C037
:102900009FB7F8948881209582238883EC912E23A9
:102910000BC0623061F49FB7F8943881822F8095A4
:1029200083238883EC912E2B2C939FBF06C08FB7F7
:10293000F894E8812E2B28838FBFDF91CF910895E3
:102940001F93CF93DF93282F30E0F901E457FF4F17
:102950008491F901E056FF4FD491F901EC54FF4FF7
:10296000C491CC23C9F0162F81110E943B14EC2F87
:10297000F0E0EE0FFF1FE853FF4FA591B4918FB722
:10298000F894111105C09C91ED2FE095E92302C048
:10299000EC91ED2BEC938FBFDF91CF911F910895B8
:1029A00008955058BB27AA270E94E9140C945C167E
:1029B0000E944E1638F00E94551620F039F49F3FC1
:1029C00019F426F40C944B160EF4E095E7FB0C94E6
:1029D0004516E92F0E946D1658F3BA176207730760
:1029E0008407950720F079F4A6F50C948F160EF461
:1029F000E0950B2EBA2FA02D0B01B90190010C010F
:102A0000CA01A0011124FF27591B99F0593F50F426
:102A1000503E68F11A16F040A22F232F342F44277E
:102A2000585FF3CF469537952795A795F040539576
:102A3000C9F77EF41F16BA0B620B730B840BBAF046
:102A40009150A1F0FF0FBB1F661F771F881FC2F7B1
:102A50000EC0BA0F621F731F841F48F487957795C5
:102A60006795B795F7959E3F08F0B0CF9395880F7F
:102A700008F09927EE0F9795879508950E942116E3
:102A800008F481E008950E9457150C945C160E948A
:102A9000551658F00E944E1640F029F45F3F29F079
:102AA0000C94451651110C9490160C944B160E94E0
:102AB0006D1668F39923B1F3552391F3951B550BCC
:102AC000BB27AA2762177307840738F09F5F5F4F01
:102AD000220F331F441FAA1FA9F335D00E2E3AF040
:102AE000E0E832D091505040E695001CCAF72BD058
:102AF000FE2F29D0660F771F881FBB1F26173707A9
:102B00004807AB07B0E809F0BB0B802DBF01FF27DA
:102B100093585F4F3AF09E3F510578F00C9445165C
:102B20000C9490165F3FE4F3983ED4F38695779526
:102B30006795B795F7959F5FC9F7880F911D969593
:102B4000879597F90895E1E0660F771F881FBB1FEF
:102B5000621773078407BA0720F0621B730B840B9C
:102B6000BA0BEE1F88F7E09508950E94751688F05D
:102B70009F5798F0B92F9927B751B0F0E1F0660F41
:102B8000771F881F991F1AF0BA95C9F714C0B13082
:102B900091F00E948F16B1E008950C948F16672F64
:102BA000782F8827B85F39F0B93FCCF386957795B1
:102BB0006795B395D9F73EF490958095709561959A
:102BC0007F4F8F4F9F4F0895E89409C097FB3EF4C5
:102BD00090958095709561957F4F8F4F9F4F99236A
:102BE000A9F0F92F96E9BB279395F69587957795E8
:102BF0006795B795F111F8CFFAF4BB0F11F460FFA8
:102C00001BC06F5F7F4F8F4F9F4F16C0882311F0FF
:102C100096E911C0772321F09EE8872F762F05C013
:102C2000662371F096E8862F70E060E02AF09A95AE
:102C3000660F771F881FDAF7880F9695879597F9A3
:102C40000895990F0008550FAA0BE0E8FEEF16163D
:102C50001706E807F907C0F012161306E407F50790
:102C600098F0621B730B840B950B39F40A2661F004
:102C7000232B242B252B21F408950A2609F4A140A7
:102C8000A6958FEF811D811D089597F99F6780E8B4
:102C900070E060E008959FEF80EC089500240A94AE
:102CA0001616170618060906089500240A94121627
:102CB0001306140605060895092E0394000C11F45A
:102CC000882352F0BB0F40F4BF2B11F460FF04C007
:102CD0006F5F7F4F8F4F9F4F089557FD9058440F60
:102CE000551F59F05F3F71F04795880F97FB991F6B
:102CF00061F09F3F79F08795089512161306140628
:102D0000551FF2CF4695F1DF08C0161617061806B4
:102D1000991FF1CF86957105610508940895E8948F
:102D2000BB2766277727CB0197F908950E942116C4
:102D300008F48FEF08950E94AE160C945C160E9462
:102D40004E1638F00E94551620F0952311F00C9481
:102D500045160C944B1611240C9490160E946D1677
:102D600070F3959FC1F3950F50E0551F629FF001DE
:102D7000729FBB27F00DB11D639FAA27F00DB11DF7
:102D8000AA1F649F6627B00DA11D661F829F222780
:102D9000B00DA11D621F739FB00DA11D621F839F07
:102DA000A00D611D221F749F3327A00D611D231FDD
:102DB000849F600D211D822F762F6A2F11249F572B
:102DC00050409AF0F1F088234AF0EE0FFF1FBB1F2E
:102DD000661F771F881F91505040A9F79E3F5105ED
:102DE00080F00C9445160C9490165F3FE4F3983EE7
:102DF000D4F3869577956795B795F795E7959F5F97
:102E0000C1F7FE2B880F911D9695879597F9089528
:102E10000E942116880B990B0895A1E21A2EAA1B75
:102E2000BB1BFD010DC0AA1FBB1FEE1FFF1FA2177A
:102E3000B307E407F50720F0A21BB30BE40BF50B77
:102E4000661F771F881F991F1A9469F76095709500
:102E5000809590959B01AC01BD01CF010895052E91
:102E600097FB1EF400940E94461757FD07D00E945E
:102E70000D1707FC03D04EF40C944617509540955F
:102E8000309521953F4F4F4F5F4F08959095809516
:102E9000709561957F4F8F4F9F4F0895EE0FFF1FE5
:0C2EA0000590F491E02D0994F894FFCF08
:102EAC0001000000007B0EAB0F1B0E590EED0D0741
:102EBC000EF90D0D0A006E616E00696E66006F767C
:022ECC0066009E
:00000001FF
