:100000000C94F0020C9418030C9418030C9418032D
:100010000C9418030C9418030C9418030C942609E0
:100020000C9418030C9418030C9418030C94FF08F8
:100030000C9418030C9418030C9418030C941803D4
:100040000C942A190C9418030C9439150C946B1504
:100050000C9418030C9418030C9418030C941803B4
:100060000C9418030C941803B5047C04B9048004A0
:10007000830486048A048D049104940497049A04EA
:100080009D04A104A504A904AC04AF040000000071
:10009000003E5B4F5B3E3E6B4F6B3E1C3E7C3E1C0E
:1000A000183C7E3C181C577D571C1C5E7F5E1C0054
:1000B000183C1800FFE7C3E7FF0018241800FFE70B
:1000C000DBE7FF30483A060E2629792926407F05CE
:1000D0000507407F05253F5A3CE73C5A7F3E1C1CE4
:1000E00008081C1C3E7F14227F22145F5F005F5FA4
:1000F00006097F017F006689956A60606060609490
:10010000A2FFA29408047E040810207E2010080894
:100110002A1C08081C2A08081E101010100C1E0C9F
:100120001E0C30383E3830060E3E0E060000000031
:100130000000005F00000007000700147F147F1418
:10014000242A7F2A1223130864623649562050005D
:1001500008070300001C2241000041221C002A1C49
:100160007F1C2A08083E0808008070300008080834
:100170000808000060600020100804023E51494554
:100180003E00427F400072494949462141494D3372
:100190001814127F1027454545393C4A49493141D9
:1001A000211109073649494936464949291E0000A7
:1001B00014000000403400000008142241141414FC
:1001C0001414004122140802015909063E415D59E8
:1001D0004E7C1211127C7F494949363E41414122F1
:1001E0007F4141413E7F494949417F090909013E1B
:1001F000414151737F0808087F00417F4100204042
:10020000413F017F081422417F404040407F021C53
:10021000027F7F0408107F3E4141413E7F0909096A
:10022000063E4151215E7F09192946264949493236
:1002300003017F01033F4040403F1F2040201F3FFC
:100240004038403F63140814630304780403615981
:10025000494D43007F4141410204081020004141C3
:10026000417F04020102044040404040000307086F
:100270000020545478407F2844443838444444286B
:10028000384444287F385454541800087E09021812
:10029000A4A49C787F0804047800447D400020409A
:1002A000403D007F1028440000417F40007C0478DE
:1002B00004787C080404783844444438FC18242426
:1002C0001818242418FC7C080404084854545424A6
:1002D00004043F44243C4040207C1C2040201C3C23
:1002E0004030403C44281028444C9090907C44641A
:1002F000544C4400083641000000770000004136AD
:10030000080002010204023C2623263C1EA1A16132
:10031000123A4040207A3854545559215555794164
:100320002254547842215554784020545579400C39
:100330001E5272123955555559395454545939551C
:100340005454580000457C410002457D420001455F
:100350007C407D1211127DF0282528F07C545545F3
:10036000002054547C547C0A097F4932494949325F
:100370003A4444443A324A4848303A4141217A3A70
:1003800042402078009DA0A07D3D4242423D3D403C
:1003900040403D3C24FF2424487E4943662B2FFCEB
:1003A0002F2BFF0929F620C0887E09032054547999
:1003B000410000447D413048484A32384040227A6A
:1003C000007A0A0A727D0D19317D2629292F2826E7
:1003D0002929292630484D402038080808080808EF
:1003E0000808382F10C8ACBA2F102834FA00007B48
:1003F000000008142A142222142A1408550055005B
:1004000055AA55AA55AAFF55FF55FF000000FF0049
:10041000101010FF00141414FF001010FF00FF1044
:1004200010F010F0141414FC001414F700FF000076
:10043000FF00FF1414F404FC141417101F10101FF5
:10044000101F1414141F00101010F0000000001FE3
:10045000101010101F10101010F010000000FF10EE
:100460001010101010101010FF10000000FF1400EA
:1004700000FF00FF00001F10170000FC04F414141C
:100480001710171414F404F40000FF00F7141414E8
:1004900014141414F700F7141414171410101F1068
:1004A0001F141414F4141010F010F000001F101F8B
:1004B0000000001F14000000FC140000F010F010F9
:1004C00010FF10FF141414FF141010101F00000070
:1004D00000F010FFFFFFFFFFF0F0F0F0F0FFFFFF74
:1004E0000000000000FFFF0F0F0F0F0F38444438CB
:1004F00044FC4A4A4A347E02020606027E027E021A
:1005000063554941633844443C04407E201E200624
:10051000027E020299A5E7A5991C2A492A1C4C7261
:1005200001724C304A4D4D303048784830BC625AE8
:10053000463D3E494949007E0101017E2A2A2A2A78
:100540002A44445F444440514A444040444A514054
:100550000000FF0103E080FF000008086B6B083615
:1005600012362436060F090F060000181800000086
:100570001010003040FF0101001F01011E00191D75
:100580001712003C3C3C3C0000000000000000084A
:10059000000201000003040700000000000000004A
:1005A000010204081020408001020408102001020A
:1005B00004081020040404040404040402020202D7
:1005C00002020303030303030000000025002800C8
:1005D0002B0000000000240027002A00CD18E81896
:1005E00011241FBECFEFD8E0DEBFCDBF15E0A0E0E5
:1005F000B1E0EAE8FAE302C005900D92A23BB10730
:10060000D9F726E0A2EBB5E001C01D92A03BB207EE
:10061000E1F712E0C0EFD2E004C02197FE010E9492
:10062000241DCE3ED107C9F70E94B5180C94431D76
:100630000C9400000C94E119CF93DF93EC0180E55A
:1006400091E00E947F1860E088890E94811A80EC06
:100650000E94991861E088890E94811A0E94A0185E
:100660006AE070E080E090E0DF91CF910C94A519F2
:100670001F93CF93DF93EC01162F80E591E00E944A
:100680007F1860E088890E94811A83E00E9499188F
:10069000812F0E94991880E00E949918182F61E01C
:1006A00088890E94811A0E94A018812FDF91CF9122
:1006B0001F910895CF92DF92EF92FF920F931F93B5
:1006C000CF93DF9300D0CDB7DEB77C01162FC22EBB
:1006D00080E591E049835A830E947F1860E0F7012A
:1006E00080890E94811A83E00E949918812F0E94BC
:1006F00099184981042F5A81152FD12CDC1459F0F7
:10070000F8E0DF1641F080E00E949918F80181932B
:100710008F01D394F3CF61E0F70180890E94811AA1
:100720000F900F90DF91CF911F910F91FF90EF905D
:10073000DF90CF900C94A018EF92FF921F93CF936D
:10074000DF931F92CDB7DEB77C01162F80E591E0D5
:1007500049830E947F1860E0F70180890E94811A16
:1007600082E00E949918812F0E9499184981842F54
:100770000E94991861E0F70180890E94811A0F9008
:10078000DF91CF911F91FF90EF900C94A018CF9222
:10079000DF92EF92FF920F931F93CF93DF9300D0DE
:1007A000CDB7DEB78C01E62EF22E80E591E04983CD
:1007B0005A830E947F1860E0F80180890E94811AA4
:1007C00082E00E9499188E2D0E9499184981E42E8A
:1007D000C42E5A81D52E8C2D8E198F1530F4F6012A
:1007E00081916F010E949918F6CF61E0F80180892C
:1007F0000E94811A0F900F90DF91CF911F910F915E
:10080000FF90EF90DF90CF900C94A018EF92FF92A2
:100810001F93CF93DF9300D0CDB7DEB77C01162FA7
:1008200080E591E02A8349830E947F1860E0F70108
:1008300080890E94811A85E00E949918812F0E9468
:1008400099184981842F0E9499182A81822F0E9429
:10085000991861E0F70180890E94811A0F900F902A
:10086000DF91CF911F91FF90EF900C94A0181F93F0
:10087000CF93DF93EC0180E591E00E947F1860E068
:1008800088890E94811A80EA0E94991880E00E945B
:100890009918182F61E088890E94811A0E94A01877
:1008A000812FDF91CF911F9108950F931F93CF93C5
:1008B0008C01C62F262F40EE6FE00E9406046FE0E9
:1008C000C8010E943803982F907E81E09C1301C0DC
:1008D00080E0CF911F910F9108950F931F93CF93B5
:1008E000DF93462F50E0FA013197E231F105D8F558
:1008F000EC5CFF4F0C94241DC7E8DFEF4FE13CC0D8
:10090000C7E0DAEB38C0C5E8D1EF35C0C7E0DEEBB1
:1009100049E032C0C7E8DFEF02C0C7E8DAEF47E0DE
:100920002BC0C7E8DFEF0BC0C7E0DEEB08C0C7E0B5
:10093000DDEA05C0C7E8DAEF02C0C6E8D0EF43E061
:100940001BC0C7E8DAEF41E017C0C5E8D1EF41E4CA
:1009500013C0C6E8D0EF05C0C4E0D0EA02C0C2E8C8
:10096000D0ED40E009C081E016C0C7E8DFEF4FE3FB
:1009700003C0C7E8DFEF4FE08C016AE20E949C03EE
:100980004D2F69E2C8010E949C034C2F68E2C80108
:100990000E949C0380E0DF91CF911F910F910895F9
:1009A0000F931F93CF938C01C0E340E06C2FC801DD
:1009B0000E949C0360E16C0F40E0C8010E949C0310
:1009C00060E26C0F40E0C8010E949C03CF5FCE3311
:1009D00061F740E060E6C8010E949C0340E060E7E8
:1009E000C801CF911F910F910C949C030F931F93FB
:1009F000CF93DF93EC01062F0E941C0360E8CE0129
:100A00000E945504182F6AE070E080E090E0111118
:100A10000CC00E94A519602FCE010E946D0488238E
:100A200039F06AE070E080E090E00E94A51928C0EB
:100A30006AE070E080E090E00E94A519CE010E947B
:100A4000D00443E06BE2CE010E949C0324E044E624
:100A500060E6CE010E94060420E040E660E7CE0199
:100A60000E94060460E0CE010E945504C82F88232E
:100A7000C1F26AE070E080E090E00E94A5191C2FAE
:100A8000812FDF91CF911F910F9108950F931F93A5
:100A9000CF93DF9300D000D0CDB7DEB74130B1F4B3
:100AA0000C831B83890122273327502F5C71402F31
:100AB000437078E0579F400D112448604A8355E009
:100AC000169507955A95E1F709830DC0A80123E013
:100AD000569547952A95E1F749830295000F007EC8
:100AE0000A831C821B8224E0AE014F5F5F4F0E948D
:100AF000C7030F900F900F900F90DF91CF911F9130
:100B00000F910895EF92FF920F931F93CF93DF936E
:100B100000D000D0CDB7DEB77A018901FA0110828A
:100B2000F901108211821282138224E0AE014F5F1C
:100B30005F4F0E945A032A813981822F90E065E03D
:100B4000959587956A95E1F7F8E03F9F800D911D97
:100B50001124092E000CAA0BBB0BF8018083918392
:100B6000A283B38323FF25C032E0880F991FAA1FF9
:100B7000BB1F3A95D1F72370820F911DA11DB11DA6
:100B8000BA2FA92F982F88272B81820F911DA11D85
:100B9000B11DBA2FA92F982F88272C81820F911D64
:100BA000A11DB11D80839183A283B38381E0F701EE
:100BB00080830F900F900F900F90DF91CF911F9136
:100BC0000F91FF90EF900895FF920F931F93CF9393
:100BD000DF93EC01F62E8A01AC014A5F5F4F65E0BE
:100BE0006F0D2D810E94C7030130110519F48D810D
:100BF00080648D8364E06F0D4D81CE010E949C0363
:100C000009811A812B813C8148816F2DCE010E9480
:100C10004605DF91CF911F910F91FF9008950F939B
:100C20001F93CF93DF93EC01162F9C012F5F3F4F53
:100C3000AC010E9482056FEF610FCE010E94380364
:100C4000082F64E0610FCE010E94380303FB0027E8
:100C500000F90E87282F2F702D83AE014A5F5F4F5A
:100C600065E0610FCE01DF91CF911F910F910C9440
:100C70005A03615028E048E00C940604AF92BF92FA
:100C8000CF92DF92EF92FF920F931F93CF93DF9358
:100C900000D01F92CDB7DEB75C016B0180E3898382
:100CA00080E48A8380E58B83FB0110828E010F5FD5
:100CB0001F4F83E0E82EE00EF801F1908F016F2DB9
:100CC000C5010E943803982F987083FD04C0F394E7
:100CD000F601F08203C0E012EFCF92E0892F0F906F
:100CE0000F900F90DF91CF911F910F91FF90EF9098
:100CF000DF90CF90BF90AF900895FC01608B089576
:100D00001F93CF93DF93EC01162F61E088890E9437
:100D1000451A61E088890E94811A0E945C13612F44
:100D2000CE010E94F60491E0811101C090E0892F6C
:100D3000DF91CF911F9108958F929F92AF92BF92B2
:100D4000DF92EF92FF920F931F93CF93DF931F9247
:100D5000CDB7DEB77C01D62E480159016AE070E0BC
:100D600080E090E049830E94A51960E8C7010E94D5
:100D70005504182F4981882329F06AE070E080E04B
:100D800090E01AC0D11004C09501840160E206C051
:100D900081E0D81206C09501840164E2C7010E9477
:100DA000460560E0C7010E945504182F6AE070E014
:100DB00080E090E0112321F00E94A519812F03C04B
:100DC0000E94A51980E00F90DF91CF911F910F91A4
:100DD000FF90EF90DF90BF90AF909F908F9008951D
:100DE0008F929F92AF92BF92EF92FF920F931F93B9
:100DF000CF93DF9300D0CDB7DEB77C01562F4801EB
:100E000059016AE070E080E090E04A8359830E94D3
:100E1000A51960E8C7010E945504182F4A8159811D
:100E2000882329F06AE070E080E090E031C0523021
:100E3000B1F040F4552379F05130F9F49501840173
:100E400064E018C0543099F070F05530B1F4950159
:100E5000840168E10FC09501840160E00BC0950139
:100E6000840168E007C09501840160E103C0950139
:100E7000840164E1C7010E94460560E0C7010E9449
:100E80005504182F6AE070E080E090E0112321F013
:100E90000E94A519812F03C00E94A51980E00F9020
:100EA0000F90DF91CF911F910F91FF90EF90BF9026
:100EB000AF909F908F900895CF92DF920F931F93E2
:100EC000FC0120834183528363837483093008F0DB
:100ED00008E005833696D60110E0CD018C199D09F6
:100EE000801791071CF48D918193F7CF80E01F91BB
:100EF0000F91DF90CF900895EF92FF920F931F9381
:100F0000FC0120834183528363837483093008F09A
:100F100008E005833696D70110E0CD018E199F09B0
:100F2000801791071CF48D918193F7CF80E01F917A
:100F30000F91FF90EF900895FC01118212821382AD
:100F40001482158210821686178680E00895CF924B
:100F5000DF92EF92FF920F931F93CF93DF931F9235
:100F6000CDB7DEB77C016B0100E010E0BE016F5F22
:100F70007F4FC7010E943E060F5F1F4F823021F452
:100F80000233110599F720C002331105E9F0A601DB
:100F90006981C7010E94E4056981C7010E94390681
:100FA00000E010E00F5F1F4F69816150C7010E9490
:100FB000380383FF04C002331105A1F707C00233D1
:100FC000110521F080E003C086E001C087E00F90AA
:100FD000DF91CF911F910F91FF90EF90DF90CF9015
:100FE0000895AF92BF92CF92DF92EF920F93CF937B
:100FF0005C01C02F0E2DEC2E0E945C076C2F70E060
:10100000C501CF910F91EF90DF90CF90BF90AF903F
:101010000C94A707EF92FF920F93CF93DF93EC010D
:101020000E947C0760E070E0CE01DF91CF910F91CC
:10103000FF90EF900C94A707CF93DF93EC010E94F1
:10104000370480FF07C061E6CE010E940F0620E052
:1010500041E008C081FF0CC061E7CE010E940F068D
:1010600020E042E06CE2CE010E94060480E001C074
:1010700084E0DF91CF910895EF92FF920F931F9339
:10108000CF93DF93EC018B017A010E941C08811140
:1010900011C09D81F8019083DE011696F7012D8124
:1010A00030E0BF016E197F09621773072CF49D9120
:1010B0009193F5CFF8011082DF91CF911F910F919D
:1010C000FF90EF900895CF92DF92EF92FF920F93EF
:1010D0001F93CF93DF9300D0CDB7DEB76C017B01B8
:1010E0008A0129833A830E941C0829813A8181114F
:1010F00023C0F6019581F8019083F6014181528168
:1011000063817481F7014083518362837383D601C5
:101110001696B90120E030E0F601458150E0241731
:10112000350764F42830310549F09D91FB01919316
:10113000BF012F5F3F4FF0CFF80110820F900F904B
:10114000DF91CF911F910F91FF90EF90DF90CF90A3
:1011500008950E943704837011F484E0089583E0B9
:1011600008956DE20E943803887F09F085E00895B4
:10117000FC0161817281838194810895FC018685DF
:101180000895FC0180810895CF93DF93EC0160E125
:10119000CE010E948006882339F062E370E080E08F
:1011A00090E00E94A519F3CFDF91CF910895CF93DE
:1011B000DF9361157105F1F0EB0121E1FB01119263
:1011C0002A95E9F7F8949B01275F3F4FAB014C5FED
:1011D0005F4F0E946308811109C00E9474196D83DA
:1011E0007E838F83988780E090E002C081E090E06A
:1011F000789402C082E090E0DF91CF9108951F9231
:101200000F920FB60F9211242F933F934F935F933A
:101210006F937F938F939F93AF93BF93EF93FF93BE
:10122000E091B405F091B5050995FF91EF91BF915B
:10123000AF919F918F917F916F915F914F913F916E
:101240002F910F900FBE0F901F9018951F920F9225
:101250000FB60F9211242F933F934F935F936F9389
:101260007F938F939F93AF93BF93EF93FF93E091FF
:10127000B205F091B3050995FF91EF91BF91AF9140
:101280009F918F917F916F915F914F913F912F919E
:101290000F900FBE0F901F901895CF92DF92EF9294
:1012A000FF92CF93DF936B017C01EA01F8941092D7
:1012B000800010928100109285001092840020E03E
:1012C00030E040E857E40E947C1C9B01AC0160E0E8
:1012D00074E284E79BE40E94241B0E94961B613009
:1012E00021E072078105910550F0809181008560B1
:1012F0008093810060E074E080E090E036C061346B
:1013000071058105910550F0809181008460809382
:10131000810060E071E080E090E027C069307105F5
:101320008105910550F08091810083608093810058
:1013300060E470E080E090E018C0623071058105E3
:10134000910550F08091810082608093810068E077
:1013500070E080E090E009C080918100816080931E
:10136000810061E070E080E090E00E94C51B9B017D
:10137000AC01C701B6010E947C1C9B01AC0160E07E
:1013800074E284E79BE40E94241B20E030E040E804
:101390005FE30E94B21A0E94961B6115710521E05D
:1013A0008207910550F4611571058105910549F495
:1013B00061E070E080E090E004C06FEF7FEF80E0DC
:1013C00090E070938900609388008091810088602C
:1013D0008093810080916F00826080936F00D09332
:1013E000B505C093B4057894DF91CF91FF90EF904D
:1013F000DF90CF900895CF92DF92EF92FF92CF933C
:10140000DF936B017C01EA01F8941092B000109216
:10141000B1001092B20020E030E040E853E40E94B6
:101420007C1C9B01AC0160E074E284E79BE40E94B9
:10143000241B0E94961B613021E0720781059105F3
:1014400050F08091B10087608093B10060E074E05B
:1014500080E090E054C0613871058105910550F03D
:101460008091B10086608093B10060E071E080E01F
:1014700090E045C0613471058105910550F080917F
:10148000B10085608093B10060E870E080E090E09A
:1014900036C0613271058105910550F08091B1002F
:1014A00084608093B10060E470E080E090E027C049
:1014B000693071058105910550F08091B10083601C
:1014C0008093B10060E270E080E090E018C062308C
:1014D00071058105910550F08091B1008260809383
:1014E000B10068E070E080E090E009C08091B10058
:1014F00081608093B10061E070E080E090E00E9444
:10150000C51B9B01AC01C701B6010E947C1C9B015D
:10151000AC0160E074E284E79BE40E94241B20E0BD
:1015200030E040E85FE30E94B21A0E94961B6F3FD2
:1015300071058105910509F050F46115710581056A
:10154000910549F461E070E080E090E004C06FEF45
:1015500070E080E090E06093B3008091B100826021
:101560008093B10080917000826080937000D0936E
:10157000B305C093B2057894DF91CF91FF90EF90BF
:10158000DF90CF900895CF92DF92EF92FF920F936A
:101590001F93CF93DF937C018B01EA0169010E94C5
:1015A000600E081719070CF085C0C7010E94640E71
:1015B000C817D9070CF07EC017FD7CC0D7FD7AC0D4
:1015C000C7010E945D0E823009F068C0F701648196
:1015D0007581AB01401B510B8A01015011094681F5
:1015E0005781CA018C1B9D0BEC0121970CC08130E7
:1015F00051F4C8019927F701048115810C1B1D0BBB
:1016000001501109EC01CA94CD2819F5FE01D7FD4E
:10161000379623E0F595E7952A95E1F7F695FE2FA5
:10162000EE27F795E7950E0F1F1FF801E050FF4FCB
:10163000CE0168E070E00E94EE1C21E030E0A901DC
:1016400002C0440F551F8A95E2F7CA019081892B89
:1016500023C0FE01D7FD379683E0F595E7958A957F
:10166000E1F7F695FE2FEE27F795E7950E0F1F1F72
:10167000F801E050FF4FCE0168E070E00E94EE1CE0
:1016800021E030E0A90102C0440F551F8A95E2F71E
:10169000CA0180959081892380830CC0833009F032
:1016A000A6CFF70186819781801B91098E01EC01FD
:1016B0002197A9CFDF91CF911F910F91FF90EF90CC
:1016C000DF90CF90089580E094E0E0E0F1E0DF016A
:1016D0009C011D9221503040E1F70895CF9361E0C5
:1016E00085E00E94811A61E070E080E090E00E9455
:1016F000A51960E085E00E94811A61E070E080E059
:1017000090E00E94A51960E08DE00E94811A61E0DE
:1017100070E080E090E00E94A51980E00E94991896
:10172000C82F61E070E080E090E00E94A51961E0C0
:101730008DE00E94811A61E070E080E090E00E94FC
:10174000A51961E085E00E94811A61E070E080E007
:1017500090E00E94A5198C2F80958170CF910895FB
:10176000CF93DF93EC01988D9F789061988F60E024
:1017700084E00E94811A61E070E080E090E00E94C5
:10178000A519888D0E94991861E070E080E090E0D2
:101790000E94A51961E084E00E94811A61E070E076
:1017A00080E090E00E94A51960E084E0DF91CF9195
:1017B0000C94811ACF93DF93EC01988D9F789062FF
:1017C000988F60E084E00E94811A61E070E080E020
:1017D00090E00E94A519888D0E94991861E070E040
:1017E00080E090E00E94A51961E084E00E94811AE7
:1017F00061E070E080E090E00E94A51960E084E084
:10180000DF91CF910C94811ACF93DF93EC01988DE7
:101810009F789064988F60E084E00E94811A61E074
:1018200070E080E090E00E94A519888D0E949918D0
:1018300061E070E080E090E00E94A51961E084E042
:101840000E94811A61E070E080E090E00E94A5199A
:1018500060E084E0DF91CF910C94811ACF93DF9305
:10186000EC01888D8F78888F60E084E00E94811A77
:1018700061E070E080E090E00E94A519888D0E94F0
:10188000991861E070E080E090E00E94A51961E0A5
:1018900084E00E94811A61E070E080E090E00E94A4
:1018A000A51960E084E0DF91CF910C94811ACF9369
:1018B000DF93EC01888D60FB87F9888F60E084E01E
:1018C0000E94811A61E070E080E090E00E94A5191A
:1018D000888D0E94991861E070E080E090E00E949D
:1018E000A51961E084E00E94811A61E070E080E067
:1018F00090E00E94A51960E084E0DF91CF910C9404
:10190000811ACF93DF93EC01888D60FB83F9888F78
:1019100060E084E00E94811A61E070E080E090E085
:101920000E94A519888D0E94991861E070E080E0FE
:1019300090E00E94A51961E084E00E94811A61E0B4
:1019400070E080E090E00E94A51960E084E0DF9103
:10195000CF910C94811ACF93DF93EC0160E00E9449
:10196000570C60E08F89DF91CF910C94811ACF934F
:10197000DF93EC0161E08F890E94811A61E0CE0162
:10198000DF91CF910C94570CCF93DF93EC010E9421
:101990005C138CB5837F8CBD8CB58C7F8CBD8DB575
:1019A00081608DBD61E084E00E94451A61E085E0C0
:1019B0000E94451A61E08F890E94451A60E084E028
:1019C0000E94811A61E085E00E94811A61E08F899E
:1019D0000E94811A61E0CE010E94810C61E070E0FA
:1019E00080E090E00E94A51960E0CE010E94810C89
:1019F0006AE070E080E090E00E94A51961E0CE010D
:101A00000E94810C64EF71E080E090E00E94A519D3
:101A1000CE010E94AB0C8EEA0E94991883EB0E94C3
:101A2000991881EF0E94991888EA0E9499188FE30B
:101A30000E94991882EA0E9499188CE40E949918D1
:101A400081EA0E94991880E00E9499188DEA0E940C
:101A5000991882E00E94991880EA0E94991886E5F8
:101A60000E94991885E80E94991888EB0E9499189D
:101A700081E00E94991881E10E94991882E20E94F7
:101A8000991882E30E94991883E40E94991884E5CA
:101A90000E94991885E60E94991886E70E94991875
:101AA00081E80E9499188FE70E94991882EB0E94A2
:101AB000991881E50E94991881EB0E94991885E593
:101AC0000E94991884EB0E94991882E00E9499184C
:101AD00080EB0E94991888E20E9499188EEB0E9470
:101AE00099188CE10E9499188FEB0E9499188FE049
:101AF0000E94991884EA0E94991885E10E94991819
:101B000080E00E9499188FE30E94991885E70E944F
:101B1000991880E00E9499188FE30E9499188FEA23
:101B20000E949918CE01DF91CF910C94B70CCF93FE
:101B3000DF93EC0161E00E94570C60E08F89DF9138
:101B4000CF910C94811ACF93DF93EC0161E08F89E0
:101B50000E94811A60E0CE01DF91CF910C94570C66
:101B60008F929F92AF92BF92CF92DF92EF92FF92AD
:101B70000F931F93CF93DF935C010E94970D80E03A
:101B8000E82E81E0F82E00E010E0F701E00FF11FF1
:101B9000C0808180C0E0D0E0D12C912C8C2F9601A8
:101BA0000C2E02C0359527950A94E2F720FF02C05B
:101BB00090EF01C090E0940102C0359527958A9579
:101BC000E2F720FD9F60892F0E9499182196C83066
:101BD000D10521F700581F4F011584E01807A9F619
:101BE00092E0E90EF11C80E8E81681E0F80659F66B
:101BF000C501DF91CF911F910F91FF90EF90DF9082
:101C0000CF90BF90AF909F908F900C94A30D0895AC
:101C1000DC01ED91FC910084F185E02D099408959B
:101C2000FC016370658B84819581268137816130E9
:101C300039F0633029F091878087338722870895B0
:101C400031872087938782870895FC01138212824F
:101C500082E295E091838083758364835783468312
:101C60007187608753874287158A15861486178681
:101C7000168681E0848B8FEF9FEF938B828B918B05
:101C8000808B168A0895FC0175876487578746877D
:101C90000895FC01848595850895FC0186859785C6
:101CA0000895FC01738B628B718B608B0895FC012E
:101CB000718B608B538B428B0895FC01858908954D
:101CC000FC01808591850895FC01828593850895A6
:101CD0002F923F924F925F926F927F928F929F923C
:101CE000AF92BF92CF92DF92EF92FF920F931F932A
:101CF000CF93DF9300D01F92CDB7DEB74C017B832B
:101D00006A836A01590117019801241B350B37FFBB
:101D100003C0319521953109C5014A815B81841B3E
:101D2000950B97FF03C091958195910951E05983D7
:101D30008217930714F019820BC09A2D8B2D58012E
:101D4000092F182F9A818B81DB82CA82C92ED82E47
:101D50008A819B81A816B9065CF49C2D8D2D6801A3
:101D6000092F182F9A818B81BB82AA82A92EB82EA7
:101D70002501AA81BB814A1A5B0A38016C187D08CB
:101D800077FE03C0719461947108720157FE03C01D
:101D9000BFEFEB1AFB0AF594E794C016D1061CF0CE
:101DA0000FEF1FEF1FC001E010E01CC0D401ED9148
:101DB000FC91B9810484F585E02D9101BB23C1F02C
:101DC0004A815B81B601C4010995E618F708F7FE60
:101DD00004C0C00ED11EE40CF51CEA81FB813196D3
:101DE000FB83EA834A815B81A416B506FCF604C036
:101DF000A6016A817B81E7CF0F900F900F90DF9152
:101E0000CF911F910F91FF90EF90DF90CF90BF90F7
:101E1000AF909F908F907F906F905F904F903F908A
:101E20002F9008952F923F924F925F926F927F92E0
:101E30008F929F92AF92BF92CF92DF92EF92FF92DA
:101E40000F931F93CF93DF9300D01F92CDB7DEB7D0
:101E5000622EDC0118962D913C9119976217730739
:101E60000CF094C01A962D913C911B974217530782
:101E70000CF08CC09B01B6E0CB9E200D311D1124CF
:101E8000121613060CF082C09A01E8E0CE9E200DD7
:101E9000311D1124121613060CF078C0C9825A01A4
:101EA0004B016C01DC01ED91FC910284F385E02D86
:101EB0000995B5E06B9E300111242401E5E04E0E3A
:101EC000511C9B828A8268187908EA81FB81E60DA1
:101ED000F71DE457FF4F3490450188E0282E30FE6F
:101EE0000BC0F981F130D1F4D601ED91FC9104845D
:101EF000F585E02D98010DC0E016F10679F0B98165
:101F0000B13061F4D601ED91FC910484F585E02DAA
:101F10009701A4016A817B81C601099536942A94B0
:101F2000BFEF8B1A9B0A2110DACFEA81FB81319631
:101F3000FB83EA83E415F50541F6E016F10649F066
:101F40008501095F1F4F9F01A501BF01C6010E94C6
:101F5000680ED601ED91FC910684F785E02DC6014F
:101F60000F900F900F90DF91CF911F910F91FF90E5
:101F7000EF90DF90CF90BF90AF909F908F907F9029
:101F80006F905F904F903F902F9009940F900F901B
:101F90000F90DF91CF911F910F91FF90EF90DF9005
:101FA000CF90BF90AF909F908F907F906F905F90F9
:101FB0004F903F902F900895CF92EF92FF920F9302
:101FC0001F93CF93DF93FC016A3069F41586148662
:101FD00024898685978538E0239F800D911D1124E3
:101FE0009787868735C06D3099F186898823C1F03F
:101FF00024898485958536E0239F800D911D1124C9
:1020000040855185481759075CF4158614868685E6
:10201000978538E0239F800D911D1124978786872F
:10202000262FEF01E288F3880089118946855785BC
:1020300064857585C488CF010E94120F2C898C8518
:102040009D8536E0239F800D911D11249D878C87EF
:1020500081E090E0DF91CF911F910F91FF90EF9081
:10206000CF9008958EE0E6EBF5E0DF011D928A95B2
:10207000E9F708950E946D118EEE95E00E94C40864
:102080008DED95E00C94C408CF93DF93CDB7DEB708
:1020900061970FB6F894DEBF0FBECDBFBE016F5F74
:1020A0007F4F8DED95E00E94D708892B09F084C001
:1020B00089819A81AB81BC8183379105A105B105E6
:1020C00031F58C85813019F481E090E002C082E026
:1020D00090E09093B9058093B8058E85882331F000
:1020E00023E030E03093B9052093B80580FF04C0A9
:1020F00091E09093BE0502C01092BE0581FF04C01E
:1021000081E08093BF0558C01092BF0555C0833849
:102110009105A105B10531F58C85813019F481E077
:1021200090E002C082E090E09093BB058093BA05F6
:102130008E85882331F023E030E03093BB05209377
:10214000BA0580FF04C091E09093C00502C01092D0
:10215000C00581FF04C081E08093C1052DC01092AD
:10216000C1052AC083399105A105B10529F58C85E2
:10217000813019F481E090E002C082E090E0909319
:10218000BD058093BC058E85882331F023E030E0C7
:102190003093BD052093BC0580FF04C091E090936F
:1021A000C20502C01092C20581FF04C081E0809385
:1021B000C30502C01092C30561960FB6F894DEBF46
:1021C0000FBECDBFDF91CF910895EF92FF920F9395
:1021D000CF93DF93CDB7DEB761970FB6F894DEBF2C
:1021E0000FBECDBFBE016F5F7F4F8EEE95E00E94A8
:1021F000D708892B21F589819A81AB81BC81803BED
:1022000022E09207A105B10559F0803B24E0920736
:10221000A105B10529F080329240A105B10579F4FC
:10222000F89449815A816B817C81CE010A967C01A8
:1022300001E120E08DED95E00E940A087894619616
:102240000FB6F894DEBF0FBECDBFDF91CF910F91D7
:10225000FF90EF900895CF93DF93FC01EE0FFF1FE7
:10226000E050FB4FC081D1810397B1F441E050E0D1
:1022700060E070E084EC95E00E94570EBE0184ECB3
:1022800095E00E94F81540E050E061E070E084ECD9
:1022900095E00E94570E05C0BE0184EC95E00E94B7
:1022A000F81564E375E084EC95E0DF91CF910C9430
:1022B000F815CF93DF93EC010A9730F467E375E0EC
:1022C00084EC95E00E94F8154AE050E0BE0184ECF1
:1022D00095E0DF91CF910C945717F89484EC95E03A
:1022E0000E94C40C84EC95E00E94630B84EC95E0A2
:1022F0000E94B00D78940895CF93DF934EE050E0A4
:1023000064E070E084EC95E00E94430EC4E0D0E00D
:1023100021E030E04EE050E0BE0184EC95E00E9408
:10232000C30A2196CE37D10599F7DF91CF91089551
:102330000F931F93CF93DF93F8944091B80550917A
:10234000B9054330510571F02091BA053091BB05B4
:102350002330310539F08091BC059091BD05833063
:10236000910529F484EC95E00E94B00B6AC04230DC
:10237000510509F057C022303105A1F7029791F7B6
:1023800080910406882339F10E9474190091000697
:10239000109101062091020630910306DC01CB0169
:1023A000801B910BA20BB30B853F9140A105B1059A
:1023B00008F447C084EC95E00E94DA0B0E9474197F
:1023C00060930006709301068093020690930306C3
:1023D0001092040636C00E947419009100061091F4
:1023E00001062091020630910306DC01CB01801B1F
:1023F000910BA20BB30B893E9340A105B10508F1E7
:1024000084EC95E00E942E0C0E94741960930006E3
:1024100070930106809302069093030681E08093F7
:1024200004060FC04130510509F09CCF2130310521
:1024300009F098CF019709F095CF84EC95E00E94C0
:10244000040C44E050E064E070E084EC95E00E940D
:10245000430E40E050E061E070E084EC95E00E94C3
:10246000570E84EC95E00E946E0B282F8091FF059B
:10247000281779F0222369F08091B6059091B7056D
:10248000019662E070E00E94EE1C9093B705809385
:10249000B6052093FF058091B6059091B70500978A
:1024A00009F051C084EC95E00E94630B44E050E0D9
:1024B00064E070E084EC95E00E94430E69E375E00F
:1024C00084EC95E00E94F8150E947C1142E150E0F6
:1024D00064E070E084EC95E00E94430E60E475E0F7
:1024E00084EC95E00E94F8158091B8059091B905AB
:1024F0000E942B114EE150E064E070E084EC95E026
:102500000E94430E6BE475E084EC95E00E94F815A0
:102510008091BA059091BB050E942B114AE250E0D0
:1025200064E070E084EC95E00E94430E66E575E09F
:1025300084EC95E00E94F8158091BC059091BD0552
:102540000E942B117DC0019709F0A8C084EC95E092
:102550000E94630B44E050E064E070E084EC95E09E
:102560000E94430E61E675E084EC95E00E94F81548
:102570000E947C118091B8059091B905039739F0BC
:102580008091BA059091BB05039751F530C042E1A7
:1025900050E064E070E084EC95E00E94430E02E1BC
:1025A00010E0C0E0D0E0FE01EA54FA4F80858823B5
:1025B00091F0A80164E070E084EC95E00E94430E85
:1025C00066E675E084EC95E00E94F815CE010E9465
:1025D0005911045F1F4F219799F2C1E0D0E0E3CF7A
:1025E0008091BC059091BD05039751F52EC042E145
:1025F00050E06EE270E084EC95E00E94430E02E150
:1026000010E0C0E0D0E0FE01EA54FA4F8285882352
:1026100091F0A8016EE270E084EC95E00E94430E18
:102620006AE675E084EC95E00E94F815CE010E9400
:102630005911045F1F4F219799F2C1E0D0E0E3CF19
:1026400084EC95E00E94B00D29C042E150E068E5BD
:1026500070E084EC95E00E94430E02E110E0C0E0DF
:10266000D0E0FE01EA54FA4F8485882391F0A80156
:1026700068E570E084EC95E00E94430E6EE675E03C
:1026800084EC95E00E94F815CE010E945911045F78
:102690001F4F2197A9F2C1E0D0E0E3CF7894DF91FA
:1026A000CF911F910F91089548E951E160E070E0EA
:1026B00080E890E40C944D09CF93CFB7F8948091C3
:1026C0000806811127C0EEEBF5E08491EAEAF5E017
:1026D0009491E82FF0E0EE0FFF1FEE52FA4FA59114
:1026E000B491EC91E92321F461E08AE00E94811A1F
:1026F00061E08AE00E94451A8CB580618CBD8CB582
:1027000080648CBD61E08DE00E94451A61E08BE041
:102710000E94451A809108068F5F80930806CFBFFC
:10272000CF9108959FB7F89480910806882319F0F7
:1027300081508093080680910806811105C08CB5F0
:102740008F7B8CBD109207069FBF08959FB7F894AA
:10275000882349F0813011F482E006C082E0809342
:10276000070680E001C081E020910606822B80935D
:10277000060680910706811103C081E08093070659
:102780009FBF0895909107069230B1F02FB7F8944B
:10279000882321F0813021F482E003C081E001C070
:1027A00080E080959091060689238093060681112A
:1027B00002C0109207062FBF0895FC01918D228D53
:1027C000892F90E0805C9F4F821B91098F7399271E
:1027D0000895FC01918D828D981731F0828DE80F5C
:1027E000F11D858D90E008958FEF9FEF0895FC0116
:1027F000918D828D981761F0828DDF01A80FB11D38
:102800005D968C91928D9F5F9F73928F90E008955B
:102810008FEF9FEF0895FC01538D448D252F30E0FD
:10282000842F90E0821B930B541710F0CF960895DD
:102830000197089581E995E1892B49F080E090E0C6
:10284000892B29F00E94911581110C9400000895A4
:10285000FC01848DDF01A80FB11DA35ABF4F2C913D
:10286000848D90E001968F739927848FA689B7890C
:102870002C93A089B1898C9180648C93938D848DE5
:10288000981306C00288F389E02D80818F7D8083B4
:102890000895CF93DF93EC01888D8823C9F0EA89EE
:1028A000FB89808185FD05C0A889B9898C9186FD49
:1028B0000FC00FB607FCF5CF808185FFF2CFA88946
:1028C000B9898C9185FFEDCFCE010E942814E7CF06
:1028D000DF91CF910895EF92FF920F931F93CF93C3
:1028E000DF93EC0181E0888F9B8D8C8D981305C060
:1028F000E889F989808185FD24C0F62E0B8D10E0D2
:102900000F5F1F4F0F731127E02E8C8DE8120CC044
:102910000FB607FCFACFE889F989808185FFF5CFEA
:10292000CE010E942814F1CF8B8DFE01E80FF11D1E
:10293000E35AFF4FF0820B8FEA89FB898081806226
:1029400007C0EE89FF896083E889F9898081806406
:10295000808381E090E0DF91CF911F910F91FF90F4
:10296000EF900895CF92DF92EF92FF921F93CF9353
:10297000DF93EC016A017B01122FE889F98982E07B
:1029800080834115514E61057105B1F060E079E039
:102990008DE390E0A70196010E94021DDA01C901B2
:1029A0000197A109B109B695A79597958795AC01AF
:1029B000411580E15807A8F0E889F989108260E89C
:1029C00074E88EE190E0A70196010E94021DBA0111
:1029D000A90141505109610971097695679557958B
:1029E0004795EC85FD855083EE85FF854083188EE5
:1029F000EC89FD891083EA89FB898081806180836D
:102A0000EA89FB89808188608083EA89FB898081EB
:102A100080688083EA89FB8980818F7D8083DF9154
:102A2000CF911F91FF90EF90DF90CF900895CF93BB
:102A3000DF93EC01E881F9810680F781E02D0995AB
:102A4000EA89FB8980818F7E8083EA89FB89808186
:102A5000877F8083EA89FB8980818F778083EA89F9
:102A6000FB8980818F7D80838A8D898FDF91CF91D3
:102A700008951F920F920FB60F9211242F938F93E8
:102A80009F93EF93FF93E0911A06F0911B068081CC
:102A9000E0912006F091210682FD12C09081809184
:102AA00023068F5F8F7320912406821751F0E091E7
:102AB0002306F0E0E65FF94F958F8093230601C06F
:102AC0008081FF91EF919F918F912F910F900FBE79
:102AD0000F901F9018951F920F920FB60F9211240E
:102AE0002F933F934F935F936F937F938F939F9316
:102AF000AF93BF93EF93FF938AE096E00E94281470
:102B0000FF91EF91BF91AF919F918F917F916F91C5
:102B10005F914F913F912F910F900FBE0F901F909B
:102B200018958AE096E00E94DD1321E0892B09F4D4
:102B300020E0822F0895CF92DF92EF92FF920F93C1
:102B40001F93CF93DF936C017A018B01C0E0D0E03B
:102B5000CE15DF0589F0D8016D918D01D601ED917B
:102B6000FC910190F081E02DC6010995892B11F4AB
:102B70007E0102C02196ECCFC701DF91CF911F915A
:102B80000F91FF90EF90DF90CF900895EF92FF921A
:102B90000F931F93CF93DF938C017B01C0E0D0E0B4
:102BA000F701EC0FFD1F6491662361F0D801ED91F0
:102BB000FC910190F081E02DC8010995892B11F05D
:102BC0002196EECFCE01DF91CF911F910F91FF9013
:102BD000EF900895DC01ED91FC91DB0114964D918D
:102BE0005C9115976D917C910280F381E02D0994A1
:102BF0000C941519DC01ED91FC910190F081E02D10
:102C00000994DB01ED91FC9111970190F081E02D89
:102C1000BC01CD01099463EA75E00C9415190F937A
:102C20001F93CF93DF93EC010E94C6158C01CE0158
:102C30000E940B16800F911FDF91CF911F910F9172
:102C400008950F931F93CF93DF93EC010E94EA1531
:102C50008C01CE010E940B16800F911FDF91CF9146
:102C60001F910F9108950F931F93CF93DF93EC0162
:102C70000E9415198C01CE010E940B16800F911F26
:102C8000DF91CF911F910F9108950F931F93CF93D1
:102C9000DF93EC010E94FA158C01CE010E940B1605
:102CA000800F911FDF91CF911F910F9108950F9386
:102CB0001F93CF93DF93EC010E9401168C01CE018C
:102CC0000E940B16800F911FDF91CF911F910F91E2
:102CD00008954F925F926F927F92EF92FF920F93BF
:102CE0001F93CF93DF93CDB7DEB7A1970FB6F894BC
:102CF000DEBF0FBECDBF7C01FA01CB0119A222308D
:102D000008F42AE08E010F5D1F4F422E512C612CDA
:102D1000712CBF01A30192010E94021DF901CA0199
:102D2000015011096A3014F4605D01C0695CD8017A
:102D30006C93232B242B252B61F7B801C7010E942C
:102D40001519A1960FB6F894DEBF0FBECDBFDF9167
:102D5000CF911F910F91FF90EF907F906F905F90B8
:102D60004F900895CF92DF92EF92FF920F931F93AF
:102D7000CF93DF93EC016A017B012115310579F4D2
:102D8000E881F9810190F081E02D642FDF91CF91EE
:102D90001F910F91FF90EF90DF90CF9009942A3010
:102DA0003105E9F477FF1AC06DE20E94FA158C0133
:102DB00044275527BA014C195D096E097F092AE09D
:102DC000CE010E946916800F911FDF91CF911F9154
:102DD0000F91FF90EF90DF90CF9008952AE0B70118
:102DE000A601CE01DF91CF911F910F91FF90EF903F
:102DF000DF90CF900C9469169A01AB01770F660BA8
:102E0000770B0C94B2160F931F93CF93DF93EC01C3
:102E10009A01AB01770F660B770B0E94B2168C01FB
:102E2000CE010E940B16800F911FDF91CF911F9151
:102E30000F9108950F931F93CF93DF93EC010E949E
:102E4000B2168C01CE010E940B16800F911FDF91EC
:102E5000CF911F910F9108952115310541F4DC01A7
:102E6000ED91FC910190F081E02D642F09940C9478
:102E700069169A01462F50E060E070E00C942C1720
:102E80000F931F93CF93DF93EC019A01462F50E0ED
:102E900060E070E00E942C178C01CE010E940B169E
:102EA000800F911FDF91CF911F910F9108959A018B
:102EB000AB0160E070E00C942C170F931F93CF933D
:102EC000DF93EC019A01AB0160E070E00E942C17E7
:102ED0008C01CE010E940B16800F911FDF91CF91C4
:102EE0001F910F9108950F931F93CF93DF93EC01E0
:102EF0000E942C178C01CE010E940B16800F911F8F
:102F0000DF91CF911F910F9108954F925F926F9231
:102F10007F928F929F92AF92BF92CF92DF92EF9269
:102F2000FF92CF93DF93EC016A017B01B22E9A01ED
:102F3000AB01C701B6010E94E91C882319F066EABB
:102F400075E027C026013701E89477F82FEF3FEFAF
:102F50004FE75FE7C301B2010E94E91C81110DC078
:102F60002FEF3FEF4FE75FE7C301B2010E941F1B46
:102F700018161CF46AEA75E00CC02FEF3FEF4FE71C
:102F80005FE4C701B6010E94771C18169CF46EEA34
:102F900075E0CE01DF91CF91FF90EF90DF90CF9061
:102FA000BF90AF909F908F907F906F905F904F9069
:102FB0000C9415192FEF3FEF4FE75FECC701B601F7
:102FC0000E941F1B87FDE3CF20E030E0A901C7016D
:102FD000B6010E941F1B87FF0AC06DE2CE010E944E
:102FE000FA154C01F7FAF094F7F8F09402C0812C2E
:102FF000912CA12C60E070E080E09FE3AB1441F0E5
:1030000020E030E040E251E40E94241BA394F6CF7C
:103010009B01AC01C701B6010E94B31A2B013C0110
:103020000E94961B6B017C010E94C51B9B01AC0199
:10303000C301B2010E94B21A2B013C012AE0B70180
:10304000A601CE010E9469167C01E80CF91CBB2088
:1030500031F06EE2CE010E94FA15E80EF91EDB2C6B
:10306000DD2029F120E030E040E251E4C301B2016B
:103070000E947C1C2B013C010E94961B4B01A12C41
:10308000B12C2AE0B501A401CE010E946916E80E18
:10309000F91EC501B4010E94C51B9B01AC01C3010F
:1030A000B2010E94B21A2B013C01DA94D9CFC701B8
:1030B000DF91CF91FF90EF90DF90CF90BF90AF90D6
:1030C0009F908F907F906F905F904F9008950C9499
:1030D00085170F931F93CF93DF93EC010E94851701
:1030E0008C01CE010E940B16800F911FDF91CF91B2
:1030F0001F910F9108950E943E1D0E943E1D209138
:103100000706222399F04FB7F89420910706213043
:1031100059F42DB3209305063DB320910606209562
:1031200023232DBB4FBF02C0409305068CBD9DBD20
:1031300008958EBD00000DB407FEFDCF8EB5089535
:1031400080910706882361F09FB7F89420910706C5
:1031500080910506213019F48DBB9FBF08958FBF64
:10316000089580E090E0089508950E941A030E9457
:1031700032100E943A100E9454139CE088E10FB66E
:10318000F894A895809360000FBE90936000A89576
:103190000E9444100E94E510FACF69E08EEE95E09F
:1031A0000E947D066AE08DED95E00E947D0640E478
:1031B00050E060E870E084EC95E00E94250EE4ECBD
:1031C000F5E08CE095E09183808388E0878B08951B
:1031D000EAE0F6E01382128288EE93E0A0E0B0E02D
:1031E00084839583A683B78385E995E09183808363
:1031F00085EC90E09587848784EC90E097878687BC
:1032000080EC90E0918B808B81EC90E0938B828BB3
:1032100082EC90E0958B848B86EC90E0978B868B8C
:10322000118E128E138E148E08956115710579F02A
:10323000FB0101900020E9F73197AF01461B570BC6
:10324000DC01ED91FC910280F381E02D099480E096
:1032500090E008951F920F920FB60F9211242F93B2
:103260003F938F939F93AF93BF938091A8069091C4
:10327000A906A091AA06B091AB063091A70623E05B
:10328000230F2D3720F40196A11DB11D05C026E89E
:10329000230F0296A11DB11D2093A7068093A806B7
:1032A0009093A906A093AA06B093AB068091AC06B2
:1032B0009091AD06A091AE06B091AF060196A11D0A
:1032C000B11D8093AC069093AD06A093AE06B0936B
:1032D000AF06BF91AF919F918F913F912F910F902A
:1032E0000FBE0F901F9018952FB7F8946091A80605
:1032F0007091A9068091AA069091AB062FBF089500
:103300003FB7F8948091AC069091AD06A091AE06BF
:10331000B091AF0626B5A89B05C02F3F19F00196C6
:10332000A11DB11D3FBFBA2FA92F982F8827820F4B
:10333000911DA11DB11DBC01CD0142E0660F771F9B
:10334000881F991F4A95D1F708958F929F92AF9247
:10335000BF92CF92DF92EF92FF926B017C010E94AD
:1033600080194B015C01C114D104E104F10401F1A5
:103370000E94B11A0E948019DC01CB0188199909B9
:10338000AA09BB09883E9340A105B10560F321E07D
:10339000C21AD108E108F10888EE880E83E0981E71
:1033A000A11CB11CC114D104E104F10419F7DBCF55
:1033B000FF90EF90DF90CF90BF90AF909F908F9055
:1033C0000895789484B5826084BD84B5816084BD9D
:1033D00085B5826085BD85B5816085BDEEE6F0E08E
:1033E000808181608083E1E8F0E0108280818260EA
:1033F0008083808181608083E0E8F0E0808181606B
:103400008083E1EBF0E0808184608083E0EBF0E09A
:10341000808181608083EAE7F0E08081846080833E
:1034200080818260808380818160808380818068E8
:1034300080831092C1000895833081F028F4813098
:1034400099F08230A1F008958730A9F08830B9F062
:103450008430D1F4809180008F7D03C08091800002
:103460008F7780938000089584B58F7702C084B5EC
:103470008F7D84BD08958091B0008F7703C08091C7
:10348000B0008F7D8093B0000895CF93DF9390E0DC
:10349000FC01E056FA4F2491FC01EC54FA4F849160
:1034A000882361F190E0880F991FFC01EE52FA4FDA
:1034B000C591D491FC01E853FA4FA591B4916111E3
:1034C00009C09FB7F8948881209582238883EC9166
:1034D0002E230BC0623061F49FB7F8943881822F9D
:1034E000809583238883EC912E2B2C939FBF06C05D
:1034F0008FB7F894E8812E2B28838FBFDF91CF916F
:1035000008951F93CF93DF93282F30E0F901E457FC
:10351000FA4F8491F901E056FA4FD491F901EC5435
:10352000FA4FC491CC23C9F0162F81110E941C1AA6
:10353000EC2FF0E0EE0FFF1FE853FA4FA591B49186
:103540008FB7F894111105C09C91ED2FE095E923F8
:1035500002C0EC91ED2BEC938FBFDF91CF911F91C7
:10356000089508955058BB27AA270E94CA1A0C94A0
:103570003D1C0E942F1C38F00E94361C20F039F4AC
:103580009F3F19F426F40C942C1C0EF4E095E7FBF5
:103590000C94261CE92F0E944E1C58F3BA176207A0
:1035A00073078407950720F079F4A6F50C94701C36
:1035B0000EF4E0950B2EBA2FA02D0B01B90190014E
:1035C0000C01CA01A0011124FF27591B99F0593F92
:1035D00050F4503E68F11A16F040A22F232F342FDA
:1035E0004427585FF3CF469537952795A795F04028
:1035F0005395C9F77EF41F16BA0B620B730B840B3D
:10360000BAF09150A1F0FF0FBB1F661F771F881FF4
:10361000C2F70EC0BA0F621F731F841F48F487954C
:1036200077956795B795F7959E3F08F0B0CF93953E
:10363000880F08F09927EE0F9795879508950E94B7
:10364000021C08F481E008950E94381B0C943D1C74
:103650000E94361C58F00E942F1C40F029F45F3F56
:1036600029F00C94261C51110C94711C0C942C1CE8
:103670000E944E1C68F39923B1F3552391F3951BD7
:10368000550BBB27AA2762177307840738F09F5F83
:103690005F4F220F331F441FAA1FA9F335D00E2EF0
:1036A0003AF0E0E832D091505040E695001CCAF75D
:1036B0002BD0FE2F29D0660F771F881FBB1F261720
:1036C00037074807AB07B0E809F0BB0B802DBF01F7
:1036D000FF2793585F4F3AF09E3F510578F00C94C6
:1036E000261C0C94711C5F3FE4F3983ED4F386953E
:1036F00077956795B795F7959F5FC9F7880F911DE7
:103700009695879597F90895E1E0660F771F881FD2
:10371000BB1F621773078407BA0720F0621B730B85
:10372000840BBA0BEE1F88F7E09508950E94561C93
:1037300088F09F5798F0B92F9927B751B0F0E1F072
:10374000660F771F881F991F1AF0BA95C9F714C022
:10375000B13091F00E94701CB1E008950C94701C7F
:10376000672F782F8827B85F39F0B93FCCF386955B
:1037700077956795B395D9F73EF4909580957095B8
:1037800061957F4F8F4F9F4F0895E89409C097FB35
:103790003EF490958095709561957F4F8F4F9F4F28
:1037A0009923A9F0F92F96E9BB279395F69587956C
:1037B00077956795B795F111F8CFFAF4BB0F11F42F
:1037C00060FF1BC06F5F7F4F8F4F9F4F16C08823D6
:1037D00011F096E911C0772321F09EE8872F762F0C
:1037E00005C0662371F096E8862F70E060E02AF04D
:1037F0009A95660F771F881FDAF7880F9695879539
:1038000097F90895990F0008550FAA0BE0E8FEEF0D
:1038100016161706E807F907C0F012161306E40794
:10382000F50798F0621B730B840B950B39F40A268D
:1038300061F0232B242B252B21F408950A2609F46B
:10384000A140A6958FEF811D811D089597F99F676F
:1038500080E870E060E008959FEF80EC0895002418
:103860000A941616170618060906089500240A94E5
:1038700012161306140605060895092E0394000C6B
:1038800011F4882352F0BB0F40F4BF2B11F460FFFA
:1038900004C06F5F7F4F8F4F9F4F089557FD905823
:1038A000440F551F59F05F3F71F04795880F97FB04
:1038B000991F61F09F3F79F08795089512161306BE
:1038C0001406551FF2CF4695F1DF08C016161706ED
:1038D0001806991FF1CF8695710561050894089522
:1038E000E894BB2766277727CB0197F908950E94B4
:1038F000021C08F48FEF08950E948F1C0C943D1C4D
:103900000E942F1C38F00E94361C20F0952311F0E5
:103910000C94261C0C942C1C11240C94711C0E94D9
:103920004E1C70F3959FC1F3950F50E0551F629F99
:10393000F001729FBB27F00DB11D639FAA27F00D08
:10394000B11DAA1F649F6627B00DA11D661F829F2F
:103950002227B00DA11D621F739FB00DA11D621F14
:10396000839FA00D611D221F749F3327A00D611D31
:10397000231F849F600D211D822F762F6A2F112413
:103980009F5750409AF0F1F088234AF0EE0FFF1F46
:10399000BB1F661F771F881F91505040A9F79E3F9D
:1039A000510580F00C94261C0C94711C5F3FE4F3CD
:1039B000983ED4F3869577956795B795F795E795F3
:1039C0009F5FC1F7FE2B880F911D9695879597F9FC
:1039D00008950E94021C880B990B089597FB072EEF
:1039E00016F4009407D077FD09D00E942A1D07FC29
:1039F00005D03EF4909581959F4F089570956195FF
:103A00007F4F0895A1E21A2EAA1BBB1BFD010DC01A
:103A1000AA1FBB1FEE1FFF1FA217B307E407F5077E
:103A200020F0A21BB30BE40BF50B661F771F881F5A
:103A3000991F1A9469F760957095809590959B01F0
:103A4000AC01BD01CF010895EE0FFF1F0590F49169
:103A5000E02D0994AA1BBB1B51E107C0AA1FBB1F85
:103A6000A617B70710F0A61BB70B881F991F5A950A
:103A7000A9F780959095BC01CD01089581E090E073
:0A3A8000F8940C94431DF894FFCF56
:103A8A00000000000000000000000000000000002C
:103A9A00000000000000000000000000000000001C
:103AAA00000000000000000000000000000000000C
:103ABA0000000000000000000000000000000000FC
:103ACA0000000000000000000000000000000000EC
:103ADA0000000000000000000000000000000000DC
:103AEA0000000000000000000000000000000000CC
:103AFA0000000000000000000000000000000000BC
:103B0A0000000000000080C0E0E0F0F8F8F8FCFCDB
:103B1A00FCFEFEFEFEFEFEFEFEFEFEFEFEFEFEFEBD
:103B2A00FEFEFEFEFEFEFEFEFEFEFEFEFEFEFEFEAB
:103B3A00FEFEFEFEFEFEFEFEFEFEFEFEFEFEFEFE9B
:103B4A00FEFEFEFEFEFEFEFEFEFEFEFEFEFEFEFE8B
:103B5A00FEFEFEFEFEFEFEFEFEFEFEFEFEFEFEFE7B
:103B6A00FEFEFEFEFEFEFEFEFEFEFEFEFEFEFEFC6D
:103B7A00FCFCF8F8F8F0E0E0C0800000000000006B
:103B8A000080F0F8FEFFFFFFFFFF7F3FDF6F27B3E4
:103B9A00DB4B692D25A5A5A52D6D49DB933767CF8D
:103BAA009F3F7FFFFFFFFFFF3FCF67339BDB496DDF
:103BBA002D25252525256D6D49DB9BB3A7EFEFFF45
:103BCA00FFFFFF7F3F9FCF67B39BDB496D25A5A50D
:103BDA00A5252D694BDBB3274FDFBFFFFFFFFF7F13
:103BEA003FDF4F27B3DB4B492D25A5A5A5256D49F9
:103BFA00DBDBB3274F9FBFFFFFFFFFFEF8F0C000DC
:103C0A00FCFFFFFFFFFFFFFF03F83E03F80EE3F997
:103C1A00FCFEFFFFFFFFFFFFFFFFFFFEFCF1073C7B
:103C2A00F107FCE10FFFFFF0C03F60CF9FB0262FE6
:103C3A006F6F6F6F6F6F6F4FCFDE9E3F7FFFFFFF1C
:103C4A00FF0FE1FC07F11C07F1FCFEFFFFFFFFFF7E
:103C5A00FFFFFFFFFEFCFDFFFFFFFFFFFF07E1FE87
:103C6A0007F91C07F9FCFEFFFFFFFFFFFFFFFFFF3D
:103C7A00FEFCFDFFFFFFFFFFFFFFFFFFFFFFFFFC53
:103C8A001FFFFFFFFFFFFFFFF0C71E70C79C7147B2
:103C9A009FBF3F7F7F7F7F7F7F7F3F9FCF63308E36
:103CAA00E3389FC1F8FFFFFFFFFFFEBCBC3D7979F7
:103CBA007B7B7B7B7B7B7B3286FC3903FE0087FF29
:103CCA00FFF8C39F70C39E3067CF9F3F7F7F7F7F80
:103CDA007F7F7F3FBFDF5F3FBFFFFFFFFFF0C31F55
:103CEA0070C79E3067CFBF3F7F7F7F7F7F7F7F3FD9
:103CFA009FCF7F3FFFFFFFFFFFFFFFFFFFFFFF1F7A
:103D0A000000070F3F7FFFFFFFFFFFFEFCF9F3F6FE
:103D1A00E4EDEDC9CBCBCBCBCBE9EDE4F6F2FBFD81
:103D2A00FCFFFFFFFFFFFFFFF9F2F6E4EDC9C9DB75
:103D3A00DBDADADADADBDBC9EDE4F6F3F9FEFFFF08
:103D4A00FFFFFFFFFEFCF9FBF2E6ECEDE9CBCBCB84
:103D5A00CBCBC9EDEDE4F2F3F9FCFEFFFFFFFFFF69
:103D6A00FEFCF9FBF2E4EDEDC9CBCBCBCBCBC9ED35
:103D7A00EDE4F2FBF9FCFEFFFFFF7F3F0F070100B6
:103D8A000000000000000001030307070F0F1F1FB8
:103D9A001F3F3F3F3F3F3F3F3F3F3F3F3F3F3F3F49
:103DAA003F3F3F3F3F3F3F3F3F3F3F3F3F3F3F3F19
:103DBA003F3F3F3F3F3F3F3F3F3F3F3F3F3F3F3F09
:103DCA003F3F3F3F3F3F3F3F3F3F3F3F3F3F3F3FF9
:103DDA003F3F3F3F3F3F3F3F3F3F3F3F3F3F3F3FE9
:103DEA003F3F3F3F3F3F3F3F3F3F3F3F3F3F3F1FF9
:103DFA001F1F0F0F0F070303010000000000000040
:103E0A0000000000000000000000000000000000A8
:103E1A000000000000000000000000000000000098
:103E2A000000000000000000000000000000000088
:103E3A000000000000000000000000000000000078
:103E4A000000000000000000000000000000000068
:103E5A000000000000000000000000000000000058
:103E6A000000000000000000000000000000000048
:103E7A000000000000000000000000000000000038
:103E8A0072057A0582058B0500000000DC0F9B1580
:103E9A00B118B418C30A070E080E0F0E100E000050
:103EAA000000DC0F9B15B118B4187B18070E080E1A
:103EBA000F0E100E0A0A0030005354415455530095
:103ECA004252414B45533A20202000535445455213
:103EDA00494E473A20005448524F54544C453A20D0
:103EEA000044544353005031420050315300503182
:103EFA005400554E4B4E4F574E00454E41424C458D
:103F0A00440044495341424C4544004552524F52A1
:103F1A0000000000006B149B150B144914DD13F705
:103F2A0013E9130D0A006E616E00696E66006F7602
:023F3A0066001F
:00000001FF
